:0E0000004EC0FECFFDCFFCCFFBCFFACFF9CF25
:10000E00F8CFF7CFF4C0F5CFF4CFF3CFF2CFF1CFD7
:10001E00F0CFEFCFEECFEDCF0500010080C02C204A
:10002E000053657420493D2020002020202073615C
:10003E0076696E6720202020202000202020636F0C
:10004E006D706C65746520202020200073636865D8
:10005E006D652C206669726D776172650020534F55
:10006E004E41544100706F77657220737570706CDD
:10007E0079002076657220322E3000000100750165
:10008E002600010076012800020077012A000000F8
:10009E00F894EE27ECBBF1E0FBBFEBBFE5BFF8E158
:1000AE00F1BDE1BD8DE0A2E0BB27ED938A95E9F7A6
:1000BE0080E094E0A0E6ED930197E9F7EAE8F0E03E
:1000CE0085919591009761F0A591B5910590159048
:1000DE00BF01F00105900D920197E1F7FB01F0CF02
:1000EE00EFE5EDBFE4E0EEBFC0E6D1E0DBC16BD4DF
:1000FE0010E000E00E3148F4E6B3E87F3E2F3117F2
:10010E0011F000E0132F0F5FF5CFE32F61D424968B
:10011E00089559D400E010E020E030E073D3A83EFB
:10012E00E3E0BE07E0E08E07E0E09E0740F06FD30D
:10013E00E85EF340604070406FD31F5FEFCF62D335
:10014E00A436E0E0BE07E0E08E07E0E09E0740F058
:10015E005ED3E456F040604070405ED30F5FEFCF49
:10016E0051D3AA30E0E0BE07E0E08E07E0E09E0744
:10017E0040F04DD3EA50F040604070404DD33F5FA9
:10018E00EFCF2C81E12FE05DE0936201E02FE05D87
:10019E00E0936301E32FE05DE0936501E22FE05D04
:1001AE00E093660115D4289608950FD400E010E070
:1001BE000630E0E01E074CF4A2E6B1E0A00FB11F3E
:1001CE00EC912FD30F5F1F4FF3CF07D40895E88123
:1001DE00E06CE7B98BE18A95F1F7369A349BFECF46
:1001EE00349AE4B1F5B166277727219608950A92DD
:1001FE001A92FA926A937A938A939A93AA93BA93DB
:10020E00EA93FA93EFB7EA93A895EFE7E2BFF4010A
:10021E0031964F01A0917401AF5FA0937401A1506C
:10022E00E0917501AE1708F488C0E0E0E093740128
:10023E00E0916101E03009F056C0F5D2F7D24ED20E
:10024E00F301F7D2E6E5FCD2ECE2F0E0FCD2F201EB
:10025E00F0D2E1E4F5D2E7D2E6D240D2EFE2F0E01E
:10026E00F2D2E0917501F2D2FF276627772753D39A
:10027E0077D34FDFEEE2E0936401E1E4E1D2E09167
:10028E006801F091690160916A0170916B01E7D28A
:10029E0095D340F0C09AEFE0EA93C5D21FD2EAEDB3
:1002AE00C0D202C0E5D2C098E1E0ED1541F4BED255
:1002BE00BDD214D2EEE3B5D2B9D2B5D2DBD2E2E0E2
:1002CE00ED1541F4B3D2AFD209D2EEE3AAD2AED23B
:1002DE00ADD2D0D2DD2031F4A9D2A5D2CBD2A6D2C6
:1002EE00A5D2C8D20EC0E13061F4A0D29FD2F6D111
:1002FE00E8E3F0E0A8D29AD296D2F0D1E9E4F0E0A9
:10030E00A2D2E0E0E0937001E0937101E0937201FC
:10031E00E0937301E0E0E0936C01E0936D01E093F4
:10032E006E01E0936F01E0E0E0936801E0936901F4
:10033E00E0936A01E0936B012DC0E2E0EA9347DFA0
:10034E00E0D2A0917001B0917101809172019091F3
:10035E007301D2D2E0937001F09371016093720138
:10036E007093730163D233DF7AD2C6D2E0936C01FD
:10037E00F0936D0160936E0170936F0154D227DF7D
:10038E0065D2BAD2E0936801F093690160936A0175
:10039E0070936B01E991EFBFF991E991B991A99130
:1003AE009991899179916991F9901990099018957F
:1003BE001A9310E09CDE1E2FE1E0ED15B9F5EC2D41
:1003CE00E83B39F4183F09F457D2183309F458D2E0
:1003DE001AC0E83339F4183B09F44ED2183709F431
:1003EE004FD211C0E83739F4183309F445D2183F0B
:1003FE0009F446D208C0E83F31F4183709F43CD26C
:10040E00183B09F43DD2EFEFF3E06E167F0614F0C1
:10041E003F0106C000240614070414F06624772456
:10042E00C11619F079BC68BC2FD239C0E2E0ED15C7
:10043E00B1F5EC2DE83B39F4183F09F428D2183306
:10044E0009F429D21AC0E83339F4183B09F41FD243
:10045E00183709F420D211C0E83739F4183309F4EB
:10046E0016D2183F09F417D208C0E83F31F41837F6
:10047E0009F40DD2183B09F40ED2EFEFF1E04E164F
:10048E005F0614F02F0106C000240414050414F0B6
:10049E0044245524C11619F05BBC4ABCF5D1C12EBB
:1004AE0019910895E8EFE8BBE7E0E7BBE8E0E5BBAC
:1004BE00E0E3E4BBE0E0E2BBEFEFE1BBE5E0E3BF8E
:1004CE00EFE7E2BFE3EAEFBDE1E0EEBDE0E0EDBD58
:1004DE00ECBDE7BDE6BDEBBDEABDE9BDE8BDE2BDE5
:1004EE00E5BDE4BDE3BDE5BFE1E0E9BFE0E8E8B9A5
:1004FE00E0E0E0BFE0ECE7B9E3E8E6B9E0E1EA937B
:10050E0054D1EFE1E1BDEFE0E1BDA2E0B0E02DD2CC
:10051E002F01A0E0B0E029D23F015BBC4ABC79BC00
:10052E0068BCEDD0AA24BB2481D180D1D7D0EAE516
:10053E00F0E089D1E4E0EA9376D1D0D0EBE6F0E0BA
:10054E0082D1ADD114F4B0D1FCCFAA24BB24D7D024
:10055E00E2E0EA936BD1C2D0E3E7F0E074D1E4E0DD
:10056E00EA9361D1BBD0E0E8F0E06DD198D114F4FC
:10057E009BD1FCCFAA24BB247894AC9A9B990BC038
:10058E00E0E0E093760180D1D394E2E0ED1508F43B
:10059E00DD249B9BFECFA0917601A13088F408DF6D
:1005AE00E8ECF0E089D164F4DD24E1E0E09376013B
:1005BE00F201A2E0B0E0E9D1F301A0E0B0E0E5D1B4
:1005CE00B39B04C0B49B02C0B5994CC090DDE873D8
:1005DE00E093600159D1A0916001A033A9F4B399C1
:1005EE0008C06DD12CF4F301A4E0B0E0CED16AD1F5
:1005FE00F6CF6CD1A4E0B0E0B8D1F9BDE8BDA4E06F
:10060E00B0E0B3D13F012EC0A0916001A832A9F491
:10061E00B49908C054D12CF4F301A6E0B0E0B5D1E2
:10062E0051D1F6CF53D1A6E0B0E09FD1F9BDE8BDD0
:10063E00A6E0B0E09AD13F0115C0A0916001A831AB
:10064E0089F4B59908C03BD12CF4F301A8E0B0E0D1
:10065E009CD138D1F6CF3AD1A8E0B0E086D13F0197
:10066E00F9BDE8BD8BCFFFCFFFE0FA95F1F7089506
:10067E00A1B3AF70A1BB919A9098F6DF929AF4DF76
:10068E00A0B39298F1DF929AEFDF9298A7FDF5CF83
:10069E000895A07FAB2BA2BB929AE6DF9298E4DF7F
:1006AE0008959198A1B3A76FA1BBB2B3BF70A881F3
:1006BE00F0DFA881A295EDDF919A21960895929A86
:1006CE00D3DFE0B39298D0DFE07F0895CDDFF7DF80
:1006DE00AE2FF5DF9198E295EA2B0895C9DFE881F8
:1006EE00F0E0E958FE4FE081A981EA0FF3D0E981ED
:1006FE00E0937B01E881E0937C0122960895B8DFB8
:10070E00E2E0E8D0B5DFECE0E5D0B2DF8CD0C9DFB7
:10071E00E0E0E0937C01E0937B010895EF93FF937B
:10072E00A8816894AA3061F0E894E0917B01EF5FB4
:10073E00E0937B01E0917D01A0917B01EA1758F4D3
:10074E00E0917C01EF5FE0937C0170D0E0917C0141
:10075E00EA93C4DF2EF08CDF909AA881AA93A1DFD2
:10076E00FF91EF91219608951A93E981FA813196BE
:10077E00E983FA833197E4911E2FE03019F01A9332
:10078E00CDDFF3CF188123960895AA27BB271197A3
:10079E00F1F708959198A1B3A76FA1BBB2B3BF7043
:1007AE00A88177DF919A2196089592989098E88182
:1007BE00E0937D01E058E0937901E881E054E09305
:1007CE007A018AD089D088D0E0DFE0E2EA93E2DFD6
:1007DE00DCDFE8E27FD0D9DFE4E07CD0D6DFE5E8ED
:1007EE0079D0D3DFA1B3AF70A1BB919A6FDFE530A3
:1007FE0011F0E0E005C03CDFE6E06CD080DFE1E028
:10080E0021960895AC81BD818E819F810895EC81E2
:10081E00FD816E817F810895EC83FD836E837F83DE
:10082E000895EA937BCFE1E0EA930895E0E0EA933E
:10083E0008956CD095D06DDCEEE2E09364010895DE
:10084E00E0936701B2CCFA93EA938ECFA091680140
:10085E00B091690180916A0190916B010895A09108
:10086E006C01B0916D0180916E0190916F010895B0
:10087E00E0E2D7CF33DFFCCFF30131963F0108958D
:10088E00F30131973F010895882499240895F201C8
:10089E0031962F010895F20131972F010895E8EC5A
:1008AE00F0E0AE16BF060895F50131965F01E5E062
:1008BE00F0E0FA93EA9314C0E815F9050895E4E61A
:1008CE00F0E0FACFE1E0E09361010895E0E0E0931B
:1008DE0061010895EA93E5CE58DFE0E3EA935ACF3B
:1008EE00E991F991309639F080ED97E00197F1F7A3
:1008FE00A8953197C9F70895EA0FFB1F681F791F56
:10090E000895EE0FFF1F661F771F08956F2F660F56
:10091E00660B762F08953F934F935F930024112417
:10092E004427552730E2AA0FBB1F881F991F001CB2
:10093E00111C441F551F0E1A1F0A460B570B28F485
:10094E000E0E1F1E461F571F01C0A1603A9559F784
:10095E00FD01BC01D001CA015F914F913F910895F5
:10096E007A936A93FA93EA930895119602D0FE2F22
:10097E001197E199FECFFF93FFB7F894AEBBBFBBC3
:10098E00E09AEDB3FFBFFF91089507D01196EF9354
:10099E00EF2F03D0EF9111970895E19B02C0A89518
:1009AE00FCCF9FB7F894AEBBBFBBE09A8DB3E817F0
:1009BE0019F0EDBBE29AE19A9FBF0895AE17BF07FB
:1009CE008607970708953A932A931A930A930895E0
:1009DE003B812A8119810881089509911991089501
:00000001FF
