:100000000C9474000C94EF1B0C94161C0C949C0024
:100010000C949C000C949C000C949C000C949C00F0
:100020000C949C000C949C000C949C000C949C00E0
:100030000C949C000C949C000C949C000C949C00D0
:100040000C943D1C0C949C000C949C000C949C0003
:100050000C949C000C949C000C949C000C949C00B0
:100060000C949B160C949C00005EBCE2613FDD8307
:10007000C29C7E20A3FD1F41009D23BE46DB65F888
:100080008C11AF32CA57E974000000080002010069
:100090000003040700000000000000000102040843
:1000A00010204080010204081020010204081020E2
:1000B000040404040404040402020202020203030E
:1000C00003030303000000002300260029000000B2
:1000D0000000250028002B0000000000240027005D
:1000E0002A00A304750E8A1811241FBECFEFD8E092
:1000F000DEBFCDBF12E0A0E0B1E0E0E9F5E402C070
:1001000005900D92A439B107D9F726E0A4E9B2E031
:1001100001C01D92AE35B207E1F710E0C4E7D0E0B0
:1001200004C02197FE010E943C20C137D107C9F7C6
:100130000E94CD1A0C94C6220C9400000895FC0174
:100140002685378544E6429FC001439F900D1124C8
:10015000608571850E94F21FCB0108950C94DE1A10
:10016000CF93DF93EC018C819D81861797071CF05C
:100170001F861E8612C0681B790B072E000C880B89
:10018000990B0E94AA192A853B854C855D850E94A2
:100190005F1A0E9472197F876E87888599856E85A0
:1001A0007F85861797070CF4BC018A81DF91CF9178
:1001B0000C94571D0F931F93FC01862F2BE131E008
:1001C0003183208328E230E03583248320E530E04A
:1001D000378326832FEF30E03187208700E010E05F
:1001E00020EC30E40287138724873587178616862C
:1001F0006283738361E01F910F910C94DF1D08955A
:1002000084E992E00C94A21184E992E00C94B0117C
:10021000CF93DF93EB0184E992E00E94EC1184E933
:1002200092E00E94A21140E062E084E992E00E9424
:10023000B01163E271E084E992E00E942D1B41E07D
:1002400064E084E992E00E94B011BE0184E992E08A
:10025000DF91CF910C942D1B84E992E00E94A211B2
:1002600040E066E084E992E00E94B01160E371E052
:1002700084E992E00C942D1B84E992E00C942D1BF0
:10028000CF92DF92EF92FF92CF93DF9300D000D016
:1002900000D0CDB7DEB76A017B0184E992E00E940D
:1002A000A21140E060E084E992E00E94B01164E3B2
:1002B00071E084E992E00E942D1B41E060E084E956
:1002C00092E00E94B01164E471E084E992E00E943F
:1002D0002D1B41E069E084E992E00E94B01120E02A
:1002E00030E040E251E4C701B6010E945F1A0E946B
:1002F0007219CB016AE070E00E94F21F4AE0CE0161
:1003000001960E946E1F6DE471E0CE0101960E947D
:10031000CF1FBE016F5F7F4F84E992E00E941F1BD9
:10032000CE0101960E94741E26960FB6F894DEBF89
:100330000FBECDBFDF91CF91FF90EF90DF90CF90B8
:100340000895CF93DF93EB0184E992E00E94A2111C
:1003500040E061E084E992E00E94B0116FE471E056
:1003600084E992E00E942D1B40E06DE084E992E078
:100370000E94B0114AE050E0BE0184E992E0DF91B2
:10038000CF910C94C71BCF93DF93EB0184E992E0EC
:100390000E94A21140E061E084E992E00E94B01165
:1003A0006BE571E084E992E00E942D1B40E06DE076
:1003B00084E992E00E94B0114AE050E0BE0184E975
:1003C00092E0DF91CF910C94C71B4AE050E084E9A2
:1003D00092E00C94C71B0C94DE1A40E06330710568
:1003E00071F469E084E992E00E94B0116BE671E07B
:1003F00084E992E00E942D1B40E060E010C0643070
:100400007105A1F460E084E992E00E94B0116BE60E
:1004100071E084E992E00E942D1B40E069E084E9EC
:1004200092E00E94B01168E671E013C060E084E9D8
:1004300092E00E94B0116BE671E084E992E00E94C4
:100440002D1B40E069E084E992E00E94B0116BE668
:1004500071E084E992E00C942D1BEF92FF920F93D0
:100460001F93CF93DF9300D000D000D0CDB7DEB77D
:100470008C017B016CE671E00E94E21E4AE0B7014C
:10048000CE0101960E946E1FBE016F5F7F4FC801B3
:100490000E944B1FCE0101960E94741EF8018481B8
:1004A00095818230910519F46BE671E004C00297E2
:1004B00028F46AE671E0C8010E94CF1FC8012696A1
:1004C0000FB6F894DEBF0FBECDBFDF91CF911F9165
:1004D0000F91FF90EF900895EF92FF920F931F936B
:1004E000CF93DF9300D000D000D0CDB7DEB77B0133
:1004F0008A0140E060E084E992E00E94B0116DE67C
:1005000071E084E992E00E942D1B40E062E084E902
:1005100092E00E94B01189ECE8168FEFF8061CF407
:1005200060E771E018C0B701CE0101960E942D026C
:10053000BE016F5F7F4F84E992E00E941F1BCE01D6
:1005400001960E94741E40E065E084E992E00E94FA
:10055000B0116DE471E084E992E00E942D1B40E04F
:1005600068E084E992E00E94B01165E771E084E9F7
:1005700092E00E942D1B40E06CE084E992E00E9432
:10058000B0110115110519F46AE771E018C0B8013E
:10059000CE0101960E942D02BE016F5F7F4F84E95C
:1005A00092E00E941F1BCE0101960E94741E40E043
:1005B0006FE084E992E00E94B0116FE771E084E996
:1005C00092E00E942D1B26960FB6F894DEBF0FBE58
:1005D000CDBFDF91CF911F910F91FF90EF900895C4
:1005E000AF92BF92CF92DF92EF92FF920F931F9341
:1005F000CF93DF93CDB7DEB72C970FB6F894DEBF5D
:100600000FBECDBF8C0169017A016CE671E00E94DA
:10061000E21E20E030E040E251E4C701B6010E9452
:100620005F1A0E947219CB016AE070E00E94F21F0B
:100630005C014AE0CE0101960E946E1FBE016F5F11
:100640007F4FC8010E944B1FCE0101960E94741E6D
:10065000F8018481958182309105A1F461E871E00F
:10066000C8010E94CF1F4AE0B501CE0101960E9449
:100670006E1FBE016F5F7F4FC8010E94C81FCE0171
:1006800001963EC00297F0F561E871E0C8010E9452
:10069000CF1F20E030E048EC52E4C701B6010E94D1
:1006A0005F1A0E947219CB0164E670E00E94F21F8B
:1006B0004AE0BC01CE0107960E946E1F8B859C8587
:1006C0000197B1F46EE672E0CE0101960E94E21E3F
:1006D000BE01695F7F4FCE0101960E94DE1FBC0103
:1006E000CE0107960E94341FCE0101960E94741E0F
:1006F000BE01695F7F4FC8010E94C81FCE010796E7
:100700000E94741EF80184819581039729F46BE699
:1007100071E0C8010E94CF1FC8012C960FB6F89453
:10072000DEBF0FBECDBFDF91CF911F910F91FF9024
:10073000EF90DF90CF90BF90AF9008958F929F92EF
:10074000AF92BF92EF92FF920F931F93CF93DF93DD
:1007500000D000D000D0CDB7DEB77C0148015901F0
:1007600040E061E084E992E00E94B01163E871E04A
:1007700084E992E00E942D1B40E063E084E992E06E
:100780000E94B011A5019401B701CE0101960E940B
:10079000F002BE016F5F7F4F84E992E00E941F1B51
:1007A000CE0101960E94741E26960FB6F894DEBF05
:1007B0000FBECDBFDF91CF911F910F91FF90EF90B2
:1007C000BF90AF909F908F900895CF92DF92EF925D
:1007D000FF920F931F93CF93DF9300D000D000D0F0
:1007E000CDB7DEB78C016A017B0141E061E084E9AD
:1007F00092E00E94B01166E871E084E992E00E9404
:100800002D1B41E063E084E992E00E94B011A70152
:100810009601B801CE0101960E94F002BE016F5F01
:100820007F4F84E992E00E941F1BCE0101960E9437
:10083000741E26960FB6F894DEBF0FBECDBFDF91B3
:10084000CF911F910F91FF90EF90DF90CF9008957F
:100850004F925F926F927F928F929F92AF92BF92D0
:10086000EF92FF920F931F93CF93DF9300D000D0AE
:1008700000D0CDB7DEB77C012A013B014801590108
:1008800040E06AE084E992E00E94B01169E871E01A
:1008900084E992E00E942D1B40E06CE084E992E044
:1008A0000E94B011A3019201B701CE0101960E94EE
:1008B000F002BE016F5F7F4F84E992E00E941F1B30
:1008C000CE0101960E94741E41E06AE084E992E044
:1008D0000E94B01169E871E084E992E00E942D1B4A
:1008E00041E06CE084E992E00E94B011A50194011E
:1008F000B701CE0101960E94F002BE016F5F7F4FEB
:1009000084E992E00E941F1BCE0101960E94741E92
:1009100026960FB6F894DEBF0FBECDBFDF91CF9104
:100920001F910F91FF90EF90BF90AF909F908F908D
:100930007F906F905F904F90089520E931E0FC0127
:100940003183208308950F9300E022E040E167E2C5
:1009500084E992E00E943B110F91089584E992E0AE
:100960000C94E611CF92DF92EF92FF921F93CF93F8
:10097000DF93162F4536510514F044E650E0BA01D6
:10098000550F880B990B0E94AA1920E030E040E82F
:1009900051E40E945F1A20E030E048EC52E40E94EB
:1009A00000196B017C0120E030E0A9010E945A1A75
:1009B00020E030E040E05FE387FD05C0C701B601FD
:1009C0000E948F1804C0C701B6010E948E180E94B1
:1009D0007219EB01E12CF12CEC16FD0624F08FE0EE
:1009E000E82EF12C0FC0412F6E2D84E992E00E9479
:1009F000B0116FEF84E992E00E94E6118FEFE81AE0
:100A0000F80AEACFEC16FD0684F0412F6E2D84E93A
:100A100092E00E94B0116BE671E084E992E00E94DE
:100A20002D1B81E0E81AF108EDCFDF91CF911F91E6
:100A3000FF90EF90DF90CF900895089585E090E0CB
:100A40000895DC0154968D919C915597DC01ED91B0
:100A5000FC910488F589E02D09940895CF93DF93E4
:100A6000EC01AE89BF89E88DF98D60817181ED91CE
:100A7000FC9111970480F581E02DCD01DF91CF919C
:100A800009940F931F93CF93DF93EC01EC89FD89B9
:100A90000190F081E02D00A111A18E899F89DC01D8
:100AA000ED91FC910680F781E02D0995E88DF98D97
:100AB00060817181AC018C899D89F8010995EC896F
:100AC000FD890190F081E02D068D178D8E899F891B
:100AD000DC01ED91FC910680F781E02D0995AC01D8
:100AE00061E070E08C899D89F801DF91CF911F91C1
:100AF0000F91099408950C94DE1AEF92FF920F93D0
:100B00001F93CF93DF93EC017A018FEF9FEF9B83CD
:100B10008A831D821C829F838E8300E010E020E880
:100B20003FEB088719872A873B879D878C8780E062
:100B300094E09F878E8780E09EEE998B888B9B8BBD
:100B40008A8B88EB91E0998388837D8B6C8B80E125
:100B500090E00E94DC1A8C0166E070E00E94DA00EE
:100B60001F8B0E8BF98EE88EDF91CF911F910F9125
:100B7000FF90EF90089508950895089581E090E022
:100B80000895DC0154968D919C915597DC01ED916F
:100B9000FC910680F781E02D09940C94DE1A0F93E6
:100BA0001F93FC018FEF9FEF938382831582148242
:100BB0009783868300E010E020E83FEB00871187F1
:100BC000228733879587848780E094E0978786879C
:100BD00080E09EEE918B808B938B828B86ED91E0F3
:100BE00091838083758B648B1F910F910895089575
:100BF00086E090E00895CF93DF93FC01C489D58906
:100C0000A689B789008CF18DE02D2085318542853C
:100C1000538518966D917D918D919C911B970E94A3
:100C20005F1AAB01BC01E881F98102A0F3A1E02DBC
:100C3000CE01DF91CF910994089508950C94DE1AA6
:100C4000CF92DF92EF92FF92FC018FEF9FEF9383A1
:100C500082831582148297838683C12CD12CA0E8CD
:100C6000EA2EAFEBFA2EC086D186E286F386958710
:100C7000848780E094E09787868780E09EEE918B62
:100C8000808B938B828B84EF91E091838083358B73
:100C9000248B518F408F778B668BFF90EF90DF9086
:100CA000CF9008950895FC01248135812E3F3105B0
:100CB00024F42F5F3F4F358324830895FC01248162
:100CC00035811216130624F421503109358324830B
:100CD000089584E090E008950F931F93FC018489A8
:100CE0009589008511852285338546895789608DD0
:100CF000718DDC01ED91FC910088F189E02D099561
:100D00001F910F9108950F931F93CF93DF93EC01E1
:100D1000EC89FD890190F081E02D02891389E88139
:100D2000F9810084F185E02D0995BC018C899D89AC
:100D3000F801DF91CF911F910F91099408950C94C0
:100D4000DE1AFC016481758186810C94571D1F9306
:100D5000CF93DF93FC011481C6A1D7A1CE010E94DD
:100D60007922181721F0612FCE010E94812260E0C4
:100D700071E080E090E0DF91CF911F910C94B81C5E
:100D8000CF93DF93EC018EA19FA10E94792290E086
:100D90009D838C8360E071E080E090E0DF91CF91F3
:100DA0000C94B81C5F926F927F928F929F92AF9239
:100DB000BF92CF92DF92EF92FF920F931F93CF9348
:100DC000DF93CDB7DEB7562E8A016DB67EB66A01C7
:100DD00021E0C21AD108CA01880F991FEDB7FEB7EA
:100DE000E81BF90B0FB6F894FEBF0FBEEDBF2DB791
:100DF0003EB72F5F3F4F79014901A12CB12CA016BE
:100E0000B1061CF080E090E01EC0852D0E943A1DC6
:100E1000F401819391934F01FFEFAF1ABF0AEFCF17
:100E2000419151912F5F3F4F608171816417750728
:100E300034F4DF0112976D937C93518340832C151A
:100E40003D0574F301968017910724F4F70120E023
:100E500030E0F5CF17FF02C00F5F1F4F0E7FF70185
:100E6000E00FF11F808191810FB6F8947EBE0FBE16
:100E70006DBEDF91CF911F910F91FF90EF90DF90AA
:100E8000CF90BF90AF909F908F907F906F905F902A
:100E900008951F93CF93DF93EC016C857D8545E02A
:100EA00050E00E94D206BC01990F880B990B0E945A
:100EB000AA199B01AC016AA17BA18CA19DA10E94F2
:100EC0005F1A688779878A879B876A8D7B8D8C8D6F
:100ED0009D8D0E94721945E050E0CE010E94D2061D
:100EE000BC01990F880B990B0E94AA192AA13BA15A
:100EF0004CA15DA10E945F1A6E8B7F8B888F998FAA
:100F000011E0288539854A855B850E94FB181816F3
:100F10000CF410E0612F88A5DF91CF911F910C9404
:100F20001B1E9F92AF92BF92CF92DF92EF92FF92E1
:100F30000F931F93CF93DF93EC01D62EC42E952EE3
:100F400059018FEF9FEF9B838A831D821C8280E073
:100F500090E0A0E8BFEB88879987AA87BB8720E04D
:100F600034E03F872E8720E03EEE398B288B3B8B89
:100F70002A8B22E132E0398328838E8B9F8BA88FC6
:100F8000B98F80E090E0A0E3B1E48E8F9F8FA8A39B
:100F9000B9A380E090E0A0E3BCE38AA39BA3ACA349
:100FA000BDA31FA21EA26E837F83B501BB0C880B5D
:100FB000990B0E94AA196A8F7B8F8C8F9D8FCC868C
:100FC0009D8608A719A760E08C2D0E94DF1D60E0B8
:100FD0008A2D0E94DF1D61E08D2D0E94DF1D61E0E2
:100FE000802F0E94DF1DFD8AEC8ADF91CF911F9137
:100FF0000F91FF90EF90DF90CF90BF90AF909F90B8
:1010000008950895FC01248135812E3F310524F493
:101010002F5F3F4F358324830895FC012481358160
:101020001216130624F421503109358324830895C0
:1010300083E090E00895CF92DF92EF92FF920F93BA
:101040001F93CF93DF93FC01C489D589C084D184D9
:10105000E284F38464817581072E000C880B990B60
:101060000E94AA19AB01BC01E881F9810684F785C9
:10107000E02D97018601CE010995DF91CF911F9157
:101080000F91FF90EF90DF90CF900895DC01549680
:101090008D919C915597DC01ED91FC910288F3892B
:1010A000E02D63E070E009940C94DE1ABF92CF92B9
:1010B000DF92EF92FF920F931F93CF93DF93CDB701
:1010C000DEB72A970FB6F894DEBF0FBECDBF8C01F6
:1010D000FC01B4846E01FBE0CF0ED11CCE01019661
:1010E0007C018B2D0E943A1DF701819391937F0122
:1010F000CE16DF06B1F785E090E0BE01675F7F4F57
:10110000FE0131962191319140815181421753075F
:1011100024F06E177F07B1F707C0DF0112974D93D8
:101120005C9331832083F5CF019751F76D817E81E8
:10113000072E000C880B990B0E94AA199B01AC0189
:10114000F801628D738D848D958D0E945F1AF80170
:1011500060877187828793872A960FB6F894DEBFDF
:101160000FBECDBFDF91CF911F910F91FF90EF90F8
:10117000DF90CF90BF900895FC01648175818681D6
:101180000C94571D0F931F93CF93DF93FC016115B0
:10119000710529F480A191A101E010E00FC0613038
:1011A000710529F482A193A102E010E007C062302A
:1011B000710529F584A195A103E010E08F3F2FEF81
:1011C0009207E9F0EF010E94792290E02C813D81A5
:1011D00082179307A1F08C899D89DC01ED91FC9128
:1011E0000284F385E02DB80109956889798980E04A
:1011F00090E0DF91CF911F910F910C94B81CDF917B
:10120000CF911F910F910895CF93DF93EC018E8DB5
:101210009F8D0E94792290E09D838C83DF91CF91F6
:101220000895FF920F931F93CF93DF93EC01F62E57
:1012300008811981C8010E947922F81621F06F2DCA
:10124000C8010E948122CE01DF91CF911F910F91A1
:10125000FF900895EF92FF920F931F93CF93DF9328
:1012600000D0CDB7DEB7FC016115710531F480A166
:1012700091A1EE24E394F12C11C06130710531F499
:1012800082A193A132E0E32EF12C08C062307105F7
:1012900029F584A195A123E0E22EF12C0196F1F02D
:1012A0008F01648180A191A19A838983CE010196E7
:1012B0000E941109D80154968D919C915597DC019B
:1012C000ED91FC910484F585E02DB7010995F801B5
:1012D0006289738980E090E00E94B81C0F900F90A3
:1012E000DF91CF911F910F91FF90EF900895CF93D1
:1012F000DF9300D0CDB7DEB7FC016481868D978D7A
:101300009A838983CE0101960E94110960E071E001
:1013100080E090E00E94B81C0F900F90DF91CF9179
:101320000895CF92DF92EF92FF92CF93FC01C62FE8
:10133000CA014FEF5FEF5383428315821482C12CA1
:10134000D12C40E8E42E4FEBF42EC086D186E28605
:10135000F38640E054E05787468740E05EEE518BCD
:10136000408B538B428B40E352E051834083C12C2E
:10137000D12C58EAE52E51E4F52EC68AD78AE08EA4
:10138000F18EC12CD12C68EAE62E6CE3F62EC28ECB
:10139000D38EE48EF58E41E050E0578F468F42E0C9
:1013A00050E051A340A343E050E053A342A344E0E4
:1013B00050E055A344A3C683778384879587358BF4
:1013C000248B60E00E94DF1D61E08C2FCF91FF90A5
:1013D000EF90DF90CF900C94DF1D089582E090E0B5
:1013E00008950F931F93CF93DF93EC01EC89FD8950
:1013F0000190F081E02D02891389E881F981008450
:10140000F185E02D0995BC018C899D89F801DF915A
:10141000CF911F910F910994089508950C94DE1AAD
:101420000F931F93FC018FEF9FEF938382831582AD
:1014300014829783868300E010E020E83FEB00876A
:101440001187228733879587848780E094E0978788
:10145000868780E09EEE918B808B938B828B8EE4CF
:1014600092E091838083758B648B1F910F91089517
:101470008091A0029091A102DC01ED91FC91008489
:10148000F185E02D0995039779F48091A002909160
:10149000A1026091060170910701DC01ED91FC91C0
:1014A0000688F789E02D09940895CF93DF9387EBA1
:1014B00092E00E947B1060E087EB92E00E940C11AA
:1014C0000E9472196E397F4F44F060E087EB92E022
:1014D0000E940C110E94721902C06DE97FEF709397
:1014E000B6026093B502603571059CF48091B40238
:1014F000882379F11092B4028091A6029091A702FC
:10150000DC01ED91FC910684F785E02DDF91CF9110
:10151000099481E08093B4028091A6029091A70281
:101520009093A1028093A002C091B002D091B10229
:10153000072E000C880B990B0E94AA19AB01BC0165
:10154000E881F9810084F185E02DCE01DF91CF9112
:101550000994DF91CF910895EF92FF920F931F931B
:10156000CF93DF9385B5887F816085BD86E190E06C
:101570000E94DC1AEC016091B0027091B1020E94ED
:10158000CF05D093A702C093A60286E190E00E9407
:10159000DC1AEC016091B0027091B1020E94100A55
:1015A000D093A902C093A80286E290E00E94DC1AC0
:1015B000EC012091B0023091B10242E050E06AE0CB
:1015C00070E00E949109D093AB02C093AA028AE214
:1015D00090E00E94DC1AEC01E090B002F090B102C1
:1015E00008E010E021E030E040E050E069E070E029
:1015F0000E949107D093AD02C093AC028AE190E0C3
:101600000E94DC1AEC012091B0023091B1024091AD
:10161000AC025091AD026091AA027091AB020E949F
:101620002006D093AF02C093AE028AE190E00E9400
:10163000DC1AEC016091B0027091B10245EB52E00E
:101640000E947D05D093A502C093A4028091A602BA
:101650009091A7029093A3028093A2029093A1027B
:101660008093A00260E083E00E94DF1D60E084E0E0
:101670000E94DF1D60E083E00E94DF1D61E088E0E2
:101680000E94DF1D61E087E00E94DF1D41E050E025
:1016900067E47CE081E00E94CF1B60E087EB92E092
:1016A0000E94121087EB92E00E94A80F20E73CE016
:1016B00040E05EEE62E070E085EE94E00E94C814C7
:1016C0009093E0028093DF0228E33AE040E05EEE90
:1016D00062E070E089E394E00E94C8149093DE0217
:1016E0008093DD0225E53AE040E05DE760E070E0F0
:1016F0008DE893E00E94C8149093DC028093DB0293
:101700002DED3CE040E05DE760E070E081EE92E0CE
:101710000E94C8149093DA028093D9028091B0029B
:101720009091B1026091080170910901DC01ED9185
:10173000FC910480F581E02D0995C6EAD2E08991FB
:101740009991DC01ED91FC910484F585E02D0995DA
:10175000B2E0C03BDB0799F78091A4029091A5020B
:10176000DC01ED91FC910484F585E02D099560E0A4
:1017700074EF80E090E00E94B81C8091A0029091EC
:10178000A102DC01ED91FC910684F785E02DDF914B
:10179000CF911F910F91FF90EF9009948091A0023B
:1017A0009091A102DC01ED91FC910084F185E02D86
:1017B00009950197D9F08091A0029091A102DC01D6
:1017C000ED91FC910084F185E02D0995059781F458
:1017D0008091A2029091A302DC01ED91FC91008422
:1017E000F185E02D099561E0019719F460E001C0F1
:1017F00061E087E00C941B1ECF93DF93EC01809196
:10180000A0029091A102DC01ED91FC910084F18590
:10181000E02D0995039771F48091A0029091A102A7
:10182000DC01ED91FC91008CF18DE02DBE01DF918A
:10183000CF910994DF91CF910895CF93DF93C6EABA
:10184000D2E089919991DC01ED91FC910088F189B8
:10185000E02D0995B2E0C03BDB0799F7DF91CF910E
:1018600008958091A0029091A102DC01ED91FC917C
:101870000480F581E02D09948091A0029091A1024D
:10188000DC01ED91FC910680F781E02D0994CF9366
:10189000DF9383E00E944A1EEC0184E00E944A1E0E
:1018A000F894CD2B21F4892B69F00E943C0C78949C
:1018B0006091DF027091E00285EE94E0DF91CF91BC
:1018C0000C94D5150E94310CF2CF8091A00290911A
:1018D000A102DC01ED91FC910284F385E02D0994D5
:1018E0008091A0029091A102DC01ED91FC91008415
:1018F000F185E02D0995019721F18091A002909149
:10190000A102DC01ED91FC910084F185E02D0995A7
:101910000297B9F08091A0029091A102DC01ED91B3
:10192000FC910084F185E02D0995059751F00E9406
:10193000650C8091A8029091A9029093A1028093D6
:10194000A00208958091A0029091A102DC01ED9186
:10195000FC910084F185E02D099582309105B1F06C
:101960001CF4019739F0089583309105A1F0049794
:10197000C9F008958091B0029091B102DC01ED911F
:10198000FC910488F589E02D09950EC08091AA028A
:101990009091AB020DC00E94650C8091AC029091B9
:1019A000AD0206C00E94650C8091A8029091A90228
:1019B0009093A1028093A00208958091B202909129
:1019C000B302892B09F469C08091A0029091A10211
:1019D000DC01ED91FC910084F185E02D09952091C9
:1019E000B2023091B302019731F1253031051CF17B
:1019F0008091A6029091A7029093A1028093A002E9
:101A00008091B0029091B102DC01ED91FC910488CB
:101A1000F589E02D09958091A0029091A102DC0149
:101A2000ED91FC910684F785E02D09951092B302A3
:101A30001092B20208958091A0029091A1022330E9
:101A40003105D1F4DC01ED91FC910084F185E02DAC
:101A50000995059741F08091A0029091A102909381
:101A6000A3028093A2028091A4029091A502909378
:101A7000A1028093A002D3CFDC01ED91FC91008400
:101A8000F185E02D0995059729F48091A2029091A6
:101A9000A302B2CF0E94A20CC9CF08950E94FC0BF2
:101AA0006091DF027091E00285EE94E00C94D51510
:101AB0008091060190910701049760F489E394E016
:101AC0000E9410156091DF027091E00285EE94E0B3
:101AD0000C94D5150895CF93DF93EC016091DD024E
:101AE0007091DE0289E394E00E94D5152397D9F422
:101AF0008091B2029091B30201969093B3028093C9
:101B0000B2026091DF027091E00285EE94E00E94E3
:101B1000D5156091D9027091DA0281EE92E0DF91E1
:101B2000CF910C94D515DF91CF910895CF93DF938A
:101B300083E00E943A1D8E3191058CF08B3991051E
:101B40008CF0843F21E0920784F0873122E09207F5
:101B50007CF0843195403CF5C4E0D0E00BC0C0E09F
:101B6000D0E008C0C1E0D0E005C0C2E0D0E002C0D3
:101B7000C3E0D0E080910601909107018C179D078A
:101B800071F0CE010E946B0D8091060190910701CA
:101B90000E944E0DD0930701C093060104C0DF914F
:101BA000CF910C94580DDF91CF9108950F931F930F
:101BB000CF93DF930E94CE0B0E94960D85EE94E0AA
:101BC0000E9410158DE893E00E94101581EE92E0BE
:101BD0000E9410158091A0029091A102DC01ED916C
:101BE000FC910488F589E02D09958091A4029091DB
:101BF000A502DC01ED91FC910288F389E02D0995A5
:101C00008091A0029091A102DC01ED91FC910084F1
:101C1000F185E02D0995019709F462C08091A00239
:101C20009091A102DC01ED91FC910084F185E02D01
:101C30000995059771F48091A2029091A302DC01AD
:101C4000ED91FC910084F185E02D0995019709F44F
:101C500047C0C6EAD2E000EB12E089919991DC011D
:101C6000ED91FC910288F389E02D09950C171D0771
:101C7000A1F70E941D0C8091A0029091A102DC01AD
:101C8000ED91FC910084F185E02D09950297D1F04A
:101C90008091A0029091A102DC01ED91FC91008461
:101CA000F185E02D0995049769F08091A00290914B
:101CB000A102DC01ED91FC910084F185E02D0995F4
:101CC000039771F4C8EAD2E089919991DC01ED9112
:101CD000FC910684F785E02D09950C171D07A1F7E7
:101CE000DF91CF911F910F910895CF93DF9385EEF0
:101CF00094E00E94231489E394E00E9423148DE869
:101D000093E00E94231481EE92E00E9423146CE081
:101D10008BEC92E00E9461136BEC72E087EB92E037
:101D20000E94BE0E82E090E00E94DC1AEC010E944C
:101D30009D04D093B102C093B002DF91CF9108957A
:101D4000FB018081883261F028F4803149F08232D1
:101D500029F406C08B3321F0823411F080E008951D
:101D600081E00895FC0177836683148215821082D6
:101D700089E0818381E0828383830895CF93DF9319
:101D8000EC010E94B20E1B8A1A8ADF91CF9108954E
:101D9000CF93DF93EB0167E0CE010E940B1491E03B
:101DA0002F81281390E0892FDF91CF910895EF9232
:101DB000FF920F931F93CF93DF938C017B01D42F5E
:101DC000FC01868197810E945513C0E041E0B70174
:101DD000F801868197810E948413882359F0DC13CF
:101DE00006C0B701C8010E94C80E811104C0CF5FB0
:101DF000DC1760F780E0DF91CF911F910F91FF908A
:101E0000EF900895EF92FF920F931F93CF93DF937C
:101E10008C01EB017A01FC01868197810E944512B9
:101E2000882311F1BE01F801868197810E94321347
:101E300040E06EEBF801868197810E94E212E70193
:101E4000F9E0EF0EF11CF801868197810E941613CC
:101E50008993CE15DF05B9F7F801868197810E9435
:101E6000451291E0813009F090E0892FDF91CF9108
:101E70001F910F91FF90EF900895CF93DF93EA01A8
:101E80000E94020F882339F068E0CE010E940B14F3
:101E900091E02885281390E0892FDF91CF91089554
:101EA0000F931F93CF93DF93EC018B018E819F8162
:101EB0000E944512B8018E819F810E94321340E03A
:101EC00064EB8E819F810E94E2128E819F810E942D
:101ED000B712182F8E819F810E94451281E0111147
:101EE00080E0DF91CF911F910F910895CF93DF9301
:101EF000CDB7DEB729970FB6F894DEBF0FBECDBFC2
:101F0000FB0120812031D1F0AE014F5F5F4F0E9475
:101F10003D0F882389F08D818F3361F020F48F315C
:101F200059F489E00CC08F3519F08F3739F004C0AF
:101F30008BE005C08AE003C080E001C08CE02996F8
:101F40000FB6F894DEBF0FBECDBFDF91CF910895DD
:101F5000FF920F931F93CF93DF93CDB7DEB72897F0
:101F60000FB6F894DEBF0FBECDBF8C01FC01868199
:101F700097810E945513F8011482158241E0BE0139
:101F80006F5F7F4FF801868197810E9484138823B9
:101F9000E9F1BE016F5F7F4FC8010E94C80E882320
:101FA00069F3F8018081811108C0BE016F5F7F4F26
:101FB000C8010E94500F811125C0F801F180BE01B7
:101FC0006F5F7F4FC8010E94760F8F1518F4F801DC
:101FD000818106C0BE016F5F7F4FC8010E94760FEE
:101FE000F801818384818F5F8483BE016F5F7F4F9F
:101FF000C8010E94A00E882309F2F80185818F5F35
:102000008583BCCF81E0F8018083D7CF28960FB6B7
:10201000F894DEBF0FBECDBFDF91CF911F910F911E
:10202000FF900895FC0162830895FC0186819781E9
:102030000E94B71291E0813009F090E0892F089555
:102040008F929F92AF92BF92CF92DF92EF92FF92C8
:102050000F931F93CF93DF93EC016950633048F4E3
:10206000E62FF0E0EE0FFF1FE059FD4F00811181D8
:1020700002C00EEE12E08B818823F1F0888181117D
:102080001BC00E94871C4B015C016801110FEE0808
:10209000FF08CE010E941510811120C00E94871CEC
:1020A000DC01CB018C199D09AE09BF098815990582
:1020B000AA05BB0570F312C0B801110F880B990B6C
:1020C000DF91CF911F910F91FF90EF90DF90CF9014
:1020D000BF90AF909F908F900C94B81CDF91CF91E0
:1020E0001F910F91FF90EF90DF90CF90BF90AF9036
:1020F0009F908F900895CF93DF93EC018E819F8105
:102100000E9445128E819F810E945113488164E490
:102110008E819F810E94E2128A81882331F0698139
:10212000CE01DF91CF910C942010DF91CF910895D3
:10213000FA01218130E0C901982F8827990F990F62
:10214000990F208148E0249F90011124282B392BDE
:10215000DB018C918031C1F4678170E08681AB0135
:10216000481B5109CA019695982F882797958795FE
:102170000E94F21F60517109207F53E0220F331F2C
:102180005A95E1F7260F371FC9010895EF92FF9284
:102190000F931F93CF93DF93CDB7DEB729970FB679
:1021A000F894DEBF0FBECDBF8C017B01AE014F5F47
:1021B0005F4F0E943D0F882341F0AE014F5F5F4F9C
:1021C000B701C8010E94981002C080E894EE2996D9
:1021D0000FB6F894DEBF0FBECDBFDF91CF911F9138
:1021E0000F91FF90EF9008950E94C610813824EE61
:1021F00092076CF0BC01990F880B990B0E94AA19E9
:1022000020E030E040E05CE30E945F1A089560E067
:1022100070E08EEF92EC08950F931F93CF93DF93AE
:10222000CDB7DEB728970FB6F894DEBF0FBECDBF8F
:102230008C01462FBE016F5F7F4F0E94D70E88230F
:1022400039F0BE016F5F7F4FC8010E94F41004C0D7
:1022500060E070E08EEF92EC28960FB6F894DEBF47
:102260000FBECDBFDF91CF911F910F91089580E0F8
:1022700090E0089508950F93FC01138212828AE77B
:1022800092E091838083648340872187028788E07E
:1022900083870F9108951F93CF93DF93EC01162F3F
:1022A0006C818FEF95E00E946A186B85612B8FEF30
:1022B00095E00E9421188FEF95E0DF91CF911F915B
:1022C0000C9487180F931F93CF938C01C62F6460D3
:1022D0000E944B1181E090E00E94F41C6C2F6B7FF8
:1022E000C8010E944B1182E390E0CF911F910F91A2
:1022F0000C94F41C1F93CF93DF93EC01162F0E94D4
:102300004B11612FCE01DF91CF911F910C9462117F
:102310000F931F93CF93DF938C01C62FD42F607F31
:10232000642B0E947A1180E1C89FB00111246D2BAB
:10233000C801DF91CF911F910F910C947A1140E069
:102340000C94881161E00E949F1180ED97E00C943D
:10235000F41C62E00E949F1180ED97E00C94F41C45
:10236000CF93DF93CDB7DEB728970FB6F894DEBFD3
:102370000FBECDBF9C0188E0EFE0F1E0DE011196D9
:1023800001900D928A95E1F7F9018185841710F487
:102390004FEF480FFE013196E40FF11DE40FF11DE0
:1023A0009081690F6068C90128960FB6F894DEBF66
:1023B0000FBECDBFDF91CF910C949F11FC016681C0
:1023C000262F246026836C600C949F1141E00E94AC
:1023D000881181E090E00895CF93DF93EC018FEFB7
:1023E00095E00E9460181D828985823010F098E087
:1023F0009D839A85992329F0813019F48D81846019
:102400008D8362E370E080E090E00E94B81C6B85F1
:10241000CE010E944B1168EE73E080E090E00E94D4
:10242000B81C60E3CE010E947A1184E991E10E9418
:10243000F41C60E3CE010E947A1184E991E10E94CC
:10244000F41C60E3CE010E947A1186E990E00E94BC
:10245000F41C60E2CE010E947A116D816062CE01AF
:102460000E949F1184E08E83CE010E94DE11CE0176
:102470000E94A21182E08F8366E0CE010E949F112C
:10248000CE01DF91CF910C94A911FF920F931F936E
:10249000CF93DF93FC01F080C181D281F8948981D0
:1024A0000F2D00958023898378941DE7115029F121
:1024B00082E090E00E94F41C88818F21B9F3F894A7
:1024C0008A8180238A8389818F298983789480EE09
:1024D00091E00E94F41CF89489810823098386E422
:1024E00090E00E94F41C8881F82211E009F010E0CD
:1024F00078948AE991E00E94F41C812FDF91CF91BA
:102500001F910F91FF9008951F93CF93DF93FC01CC
:102510001081C181D281812F809560FF12C0F89413
:102520009A8189238A838981812B89838AE090E03B
:102530000E94F41C8A81182B1A83789487E390E018
:1025400011C0F8949A8189238A838981812B898398
:1025500081E490E00E94F41C8A81182B1A837894FD
:1025600085E090E0DF91CF911F910C94F41C0F93C4
:102570001F93CF93DF93FC010081C181D281F89436
:102580008981802B89838A81102F109581238A83EA
:1025900083E090E00E94F41C8981182319838AE06B
:1025A00090E00E94F41CC881789485E390E00E943A
:1025B000F41CC02381E009F480E0DF91CF911F91EA
:1025C0000F910895DF92EF92FF920F931F93CF9395
:1025D000DF93EC01D62EE42E08E010E0FF24F39404
:1025E00061E08D2D8F2109F460E0CE010E948412FC
:1025F000FF0C01501109A1F7E11010C0F894E98116
:10260000FA8191818881809589238183E981FA818A
:10261000928188818095892382837894DF91CF91FC
:102620001F910F91FF90EF90DF900895EF92FF922E
:102630000F931F93CF93DF937C0108E010E0C0E07D
:10264000D1E0C7010E94B7128111CD2BDD0F0150DF
:102650001109B9F78C2FDF91CF911F910F91FF9046
:10266000EF900895EF92FF920F931F93CF93DF9314
:102670008C017B0140E065E50E94E212E70188E001
:10268000E80EF11C699140E0C8010E94E212CE15EB
:10269000DF05C1F7DF91CF911F910F91FF90EF9070
:1026A000089540E06CEC0C94E212FC011386158650
:1026B0001486DC011B9633961E92AE17BF07E1F716
:1026C00008951F93CF93DF93EC01162F60E0812FC5
:1026D0000E94DF1D612F70E0FB01E456FF4FE49183
:1026E000E883FB01E055FF4FE491F0E0EE0FFF1FA0
:1026F000EC53FF4F859194919A838983CE01DF91AA
:10270000CF911F910C945513BF92CF92DF92EF920D
:10271000FF920F931F93CF93DF93EC016B01142F64
:102720008D85811105C0CE010E944512811105C021
:102730001B861D861C8680E064C040E0112311F0DA
:1027400060EF01C06CEECE010E94E21201E0E12CCC
:10275000B12C11E0CE010E94B712F82ECE010E94DA
:10276000B71291E0F91203C08130B1F434C02E2DBC
:1027700030E0F8121BC08B85181738F4FE01E20F09
:10278000F31F8381802341F402C0181729F0F12C34
:10279000193058F41C8709C0FE01EE0DF11D83812C
:1027A000802B8383FF24F39409C0B12EFE01E20F36
:1027B000F31F9381802F8095892383836F2DCE0112
:1027C0000E9484121F5F000F11F4E39401E087E080
:1027D0008E1508F0BFCF113408F4AACFBB86B11014
:1027E00002C081E08D878B81882309F4A1CFDE01AF
:1027F0001396F6012B968D918193CA17DB07D9F7B3
:1028000081E0DF91CF911F910F91FF90EF90DF90CA
:10281000CF90BF900895DC0180E0615098F02D9139
:10282000982F9227E92FEF70F0E0E859FF4F24919D
:1028300092959F70E92FF0E0E858FF4FE491822FC6
:102840008E27EBCF0895CF92DF92EF92FF92CF9336
:10285000DF93EC010E94871C7E012CE8E20EF11C44
:10286000FE01B8966E019E01245C3F4FD7011D9278
:102870007D0111921192D6016D937D938D939D935D
:102880006D01AF01425B5F4FDA011D921C92E217AE
:10289000F30761F7C655DF4F19821882DF91CF9198
:1028A000FF90EF90DF90CF900895FC01E655FF4F29
:1028B000208131812A3031056CF4E258F10920E0A1
:1028C00030E081919191892B41F02F5F3F4F2A3069
:1028D0003105B9F78FEF9FEF0895C90108954F9221
:1028E0005F926F927F92AF92BF92CF92DF92EF9200
:1028F000FF920F931F93CF93DF93EC012A013B01CB
:1029000069010E9455147C0197FD31C0C114D104A6
:1029100071F15C01AA0CBB1CAA0CBB1CAC0EBD1E49
:10292000F50144AE55AE66AE77AEF701EE0FFF1F70
:10293000EC0FFD1FD1A6C0A6EC59FF4F11830083F9
:10294000FE01EE0DFF1DE457FF4F81E080830E94E2
:10295000871CF5016083718382839383C655DF4FA3
:1029600088819981019699838883C70102C08FEF7E
:102970009FEFDF91CF911F910F91FF90EF90DF902C
:10298000CF90BF90AF907F906F905F904F900895E1
:102990000F931F9300E010E00E946F141F910F919E
:1029A0000895CF93DF936A307105BCF5EC01C655ED
:1029B000DF4F288139812115310579F1DB01AA0F1B
:1029C000BB1FA80FB91F98964D915C919997452B05
:1029D00021F199961C921E929897FC01E60FF71F21
:1029E000E457FF4F1082FD01EA56FF4F118210821B
:1029F000615F7F4F660F771F660F771FFC01E60F41
:102A0000F71F1082118212821382A858BF4F1D92A5
:102A10001C922150310939832883DF91CF91089589
:102A20002F923F924F925F926F927F928F929F92DE
:102A3000AF92BF92CF92DF92EF92FF920F931F93CC
:102A4000CF93DF9300D000D000D0CDB7DEB79C830A
:102A50008B830E94871C6B017C01EB81FC81EC590C
:102A6000FF4F0B811C81980124573F4FC8018858A4
:102A70009F4F9A8389831E830D8322242394312CB4
:102A800013AA12AACF01CC97DC018D919C91892BBE
:102A9000F1F1AD81BE818D909D90AD90BC9013976A
:102AA000DC964D915D916D917C91DF972601370108
:102AB000481859086A087B084416550666067706C2
:102AC00030F1480D591D6A1D7B1D4D935D936D932B
:102AD0007C931397D9018C918823C9F0408151814F
:102AE0004115510519F433AA22AA11C08489958988
:102AF0008417950764F433AA22AA0196958B848BD8
:102B00008417950724F082E090E093AB82AB329675
:102B1000AD81BE811496BE83AD832F5F3F4F898107
:102B20009A81E817F90709F0ABCFE12CF12CF801F5
:102B3000EA56FF4F808191818130910571F00297B3
:102B400091F4D8019896ED91FC9199970995B70168
:102B50008B819C810E94D11406C0D8019896ED917A
:102B6000FC9199970995BFEFEB1AFB0A0E5F1F4F77
:102B70008AE0E816F104D9F626960FB6F894DEBF7F
:102B80000FBECDBFDF91CF911F910F91FF90EF90BE
:102B9000DF90CF90BF90AF909F908F907F906F907D
:102BA0005F904F903F902F9008950F931F93CF9376
:102BB000DF936A30710574F4EB018C010E94871C6D
:102BC000CC0FDD1FCC0FDD1FC00FD11F68837983B1
:102BD0008A839B83DF91CF911F910F91089510926B
:102BE000FE0581E08093FC051092FB0561E082E127
:102BF0000E941B1E61E083E10E941B1EE9EBF0E0D6
:102C000080818E7F808380818D7F808388E4809324
:102C1000B80085E48093BC0008950F93413208F01A
:102C20004AC09091FE059111FCCF32E03093FE0531
:102C30000093FC053FEF309391051092D605409329
:102C4000D505562FA7EDB5E0FB013E2F351B3417F8
:102C500018F431913D93F9CF1092FD053091FD05A7
:102C6000880F832B8093FD058091FB05813061F4F3
:102C70001092FB058091FD058093BB008091BC0004
:102C800083FDF8CF85EC01C085EE8093BC00222344
:102C900021F08091FE058230D1F3809191058F3F24
:102CA00079F080919105803241F0809191058033D7
:102CB00031F094E005C091E003C092E001C093E0E0
:102CC000892F0F9108954091B305262F30E0240FEE
:102CD000311D21323105DCF42091FE052430C9F488
:102CE000FC0180E090E0861758F43091B305219103
:102CF000DC01AB54BA4FA30FB11D2C930196F3CF57
:102D00008091B305680F6093B30580E0089581E07A
:102D1000089582E0089585ED8093BC008091BC0009
:102D200084FDFCCF1092FE05089585EC8093BC00D5
:102D30001092FE0508951F920F920FB60F92112464
:102D40002F933F934F935F936F937F938F939F93B3
:102D5000AF93BF93EF93FF938091B900887F803644
:102D600009F49EC078F5883209F45DC090F4803192
:102D700009F456C038F4882309F4F5C0883009F402
:102D80004FC0F5C0883109F44EC0803209F45FC0ED
:102D9000EEC0803409F46AC058F4803309F457C097
:102DA000883309F0E4C0809391050E949516DFC036
:102DB000803509F44FC0883509F45DC0883409F0C6
:102DC000D6C0D3C0883909F4C4C0A8F4883709F440
:102DD00067C038F4883609F463C0803709F460C0EE
:102DE000C6C0883809F4B5C0803909F45FC080389E
:102DF00009F0BDC05BC0803B09F483C038F4803A61
:102E000009F466C0883A09F47CC0B1C0803C09F47A
:102E1000A4C0883C09F4A1C0883B09F487C0A7C0BE
:102E20008091FD0510C09091D6058091D505981729
:102E300070F5E091D60581E08E0F8093D605F0E025
:102E4000E952FA4F80818093BB0085EC83C0809368
:102E500091058BC0E091D60581E08E0F8093D60559
:102E60008091BB00F0E0E952FA4F80839091D60543
:102E70008091D5056BC0E091D60581E08E0F8093DF
:102E8000D6058091BB00F0E0E952FA4F8083809133
:102E9000FC0581116AC081E08093FB0584EA5EC075
:102EA00083E08093FE0510929205CFCF809192052A
:102EB000803208F04EC0E091920581E08E0F809341
:102EC00092058091BB00F0E0ED56FA4F8083BDCFB4
:102ED0000E94951680919205803230F4E09192051F
:102EE000F0E0ED56FA4F10826091920570E0E091AB
:102EF000F705F091F80583E995E0099510929205A0
:102F000036C084E08093FE051092B4051092B3059C
:102F1000E091F905F091FA0509958091B3058111C9
:102F200005C081E08093B3051092B505E091B4052A
:102F300081E08E0F8093B405F0E0EB54FA4F80816E
:102F40008093BB009091B4058091B305981708F465
:102F50007CCF85E88093BC000AC085EC8093BC00E0
:102F60001092FE0504C0109291050E948B16FF91ED
:102F7000EF91BF91AF919F918F917F916F915F91F1
:102F80004F913F912F910F900FBE0F901F9018956A
:102F900080912F0690E020913006821B91090895C0
:102FA0009091300680912F06981750F4E92FF0E0A9
:102FB000EF5CF94F208130E09F5F9093300602C0B4
:102FC0002FEF3FEFC9010895E091300680912F0661
:102FD000E81730F4F0E0EF5CF94F808190E008955D
:102FE0008FEF9FEF08950895CF92DF92EF92FF92B7
:102FF0000F931F93CF93DF937C01CB018A01209124
:103000000B06222389F0EB016B01C40ED51ECC15F3
:10301000DD0569F06991D701ED91FC910190F08196
:10302000E02DC7010995F3CF642F0E946316C801F4
:10303000DF91CF911F910F91FF90EF90DF90CF9094
:103040000895CF93DF931F92CDB7DEB769832091A8
:103050000B062223D1F020910C06203240F021E013
:1030600030E0FC013383228380E090E015C0809142
:103070000D06E82FF0E0E25FF94F998190838F5FB2
:1030800080930D0680930C0605C061E0CE01019689
:103090000E94631681E090E00F90DF91CF91089538
:1030A000FC011382128288EE93E0A0E0B0E08483FA
:1030B0009583A683B78386E892E091838083089501
:1030C0001092300610922F0610920D0610920C06E8
:1030D0000C94EF1581E080930B0660932E061092FE
:1030E0000D0610920C0608950F93062F21E04091D3
:1030F0000C066EE076E080912E060E940D1610926E
:103100000D0610920C0610920B060F91089561E0C7
:103110000C9474188FEF95E00C9450185058BB27FE
:10312000AA270E94A6180C94201A0E94121A38F09E
:103130000E94191A20F039F49F3F19F426F40C94D8
:103140000F1A0EF4E095E7FB0C94091AE92F0E9480
:10315000311A58F3BA17620773078407950720F0EE
:1031600079F4A6F50C94531A0EF4E0950B2EBA2FB1
:10317000A02D0B01B90190010C01CA01A00111247D
:10318000FF27591B99F0593F50F4503E68F11A1629
:10319000F040A22F232F342F4427585FF3CF4695BA
:1031A00037952795A795F0405395C9F77EF41F16DC
:1031B000BA0B620B730B840BBAF09150A1F0FF0FA6
:1031C000BB1F661F771F881FC2F70EC0BA0F621F92
:1031D000731F841F48F4879577956795B795F79582
:1031E0009E3F08F0B0CF9395880F08F09927EE0F17
:1031F0009795879508950E94E51908F481E0089550
:103200000E9414190C94201A0E94191A58F00E9456
:10321000121A40F029F45F3F29F00C94091A511159
:103220000C94541A0C940F1A0E94311A68F39923C3
:10323000B1F3552391F3951B550BBB27AA276217B2
:103240007307840738F09F5F5F4F220F331F441FBF
:10325000AA1FA9F335D00E2E3AF0E0E832D09150F3
:103260005040E695001CCAF72BD0FE2F29D0660FE0
:10327000771F881FBB1F261737074807AB07B0E823
:1032800009F0BB0B802DBF01FF2793585F4F3AF029
:103290009E3F510578F00C94091A0C94541A5F3F24
:1032A000E4F3983ED4F3869577956795B795F795AF
:1032B0009F5FC9F7880F911D9695879597F9089597
:1032C000E1E0660F771F881FBB1F62177307840733
:1032D000BA0720F0621B730B840BBA0BEE1F88F742
:1032E000E09508950E9479196894B1110C94541ACC
:1032F00008950E94391A88F09F5798F0B92F99279E
:10330000B751B0F0E1F0660F771F881F991F1AF0D0
:10331000BA95C9F714C0B13091F00E94531AB1E0C8
:1033200008950C94531A672F782F8827B85F39F0C7
:10333000B93FCCF3869577956795B395D9F73EF469
:1033400090958095709561957F4F8F4F9F4F089511
:10335000E89409C097FB3EF490958095709561952F
:103360007F4F8F4F9F4F9923A9F0F92F96E9BB27E5
:103370009395F695879577956795B795F111F8CF61
:10338000FAF4BB0F11F460FF1BC06F5F7F4F8F4FCC
:103390009F4F16C0882311F096E911C0772321F0C2
:1033A0009EE8872F762F05C0662371F096E8862F5A
:1033B00070E060E02AF09A95660F771F881FDAF7B1
:1033C000880F9695879597F90895990F0008550FDE
:1033D000AA0BE0E8FEEF16161706E807F907C0F09B
:1033E00012161306E407F50798F0621B730B840BA3
:1033F000950B39F40A2661F0232B242B252B21F47D
:1034000008950A2609F4A140A6958FEF811D811D1C
:10341000089597F99F6780E870E060E008959FEF56
:1034200080EC089500240A9416161706180609065B
:10343000089500240A94121613061406050608952A
:10344000092E0394000C11F4882352F0BB0F40F4B2
:10345000BF2B11F460FF04C06F5F7F4F8F4F9F4FF2
:10346000089557FD9058440F551F59F05F3F71F074
:103470004795880F97FB991F61F09F3F79F08795DB
:103480000895121613061406551FF2CF4695F1DF64
:1034900008C0161617061806991FF1CF86957105F4
:1034A000610508940895E894BB2766277727CB0128
:1034B00097F908950E94E51908F48FEF08950E9486
:1034C000721A0C94201A0E94121A38F00E94191ACB
:1034D00020F0952311F00C94091A0C940F1A112462
:1034E0000C94541A0E94311A70F3959FC1F3950FF2
:1034F00050E0551F629FF001729FBB27F00DB11D78
:10350000639FAA27F00DB11DAA1F649F6627B00D07
:10351000A11D661F829F2227B00DA11D621F739FF0
:10352000B00DA11D621F839FA00D611D221F749FFE
:103530003327A00D611D231F849F600D211D822F45
:10354000762F6A2F11249F5750409AF0F1F088236C
:103550004AF0EE0FFF1FBB1F661F771F881F915099
:103560005040A9F79E3F510580F00C94091A0C9425
:10357000541A5F3FE4F3983ED4F3869577956795A8
:10358000B795F795E7959F5FC1F7FE2B880F911DC3
:103590009695879597F9089508950E94FF1C0E94BB
:1035A000CC1A0E94AC0AC0E0D0E00E94D60D209751
:1035B000E1F30E940000F9CF0C9442200C94DA2031
:1035C000CF92DF92EF92FF920F931F93CF93DF93EF
:1035D0006C017A018B01C0E0D0E0CE15DF0581F0EF
:1035E000D8016D918D01D601ED91FC910190F08192
:1035F000E02DC6010995892B11F02196EECF7E01B1
:10360000C701DF91CF911F910F91FF90EF90DF9055
:10361000CF9008956115710579F0FB0101900020AC
:10362000E9F73197AF01461B570BDC01ED91FC9197
:103630000280F381E02D099480E090E00895DB01A1
:1036400014964D915C9115976D917C91DC01ED91F3
:10365000FC910280F381E02D09940C940A1BDC019B
:10366000ED91FC910190F081E02D09948F929F9251
:10367000AF92BF92EF92FF920F931F93CF93DF937E
:10368000CDB7DEB7A1970FB6F894DEBF0FBECDBFA2
:103690007C01FA01CB0119A2223008F42AE08E0144
:1036A0000F5D1F4F822E912CA12CB12CBF01A501C3
:1036B00094010E940620F901CA01015011096A30E3
:1036C00010F4605D01C0695CD8016C93232B242B3E
:1036D000252B61F7B801C7010E940A1BA1960FB6FE
:1036E000F894DEBF0FBECDBFDF91CF911F910F9138
:1036F000FF90EF90BF90AF909F908F900895CF92E2
:10370000DF92EF92FF920F931F93CF93DF932115D8
:10371000310581F4DC01ED91FC910190F081E02D07
:10372000642FDF91CF911F910F91FF90EF90DF9069
:10373000CF9009942A30310501F577FF1DC06A0149
:103740007B01EC016DE20E942F1B8C014427552761
:10375000BA014C195D096E097F092AE0CE010E9469
:10376000361B800F911FDF91CF911F910F91FF901A
:10377000EF90DF90CF9008952AE0DF91CF911F91D5
:103780000F91FF90EF90DF90CF900C94361B9A0131
:10379000AB01770F660B770B0C947F1B089582307B
:1037A000E8F4E82FF0E0EE0FFF1FE65FFE4F7183B5
:1037B0006083813041F0809169008C7F482B409379
:1037C0006900E89A089580916900837F440F551F2E
:1037D000440F551F482B40936900E99A08951F92A2
:1037E0000F920FB60F9211242F933F934F935F9335
:1037F0006F937F938F939F93AF93BF93EF93FF93B9
:10380000E0910A01F0910B010995FF91EF91BF91B1
:10381000AF919F918F917F916F915F914F913F9168
:103820002F910F900FBE0F901F9018951F920F921F
:103830000FB60F9211242F933F934F935F936F9383
:103840007F938F939F93AF93BF93EF93FF93E091F9
:103850000C01F0910D010995FF91EF91BF91AF918E
:103860009F918F917F916F915F914F913F912F9198
:103870000F900FBE0F901F9018951F920F920FB6CA
:103880000F9211242F933F938F939F93AF93BF93E6
:103890008091520690915306A0915406B09155061E
:1038A0003091510623E0230F2D3720F40196A11DFE
:1038B000B11D05C026E8230F0296A11DB11D20935E
:1038C00051068093520690935306A0935406B093EA
:1038D00055068091560690915706A0915806B091D2
:1038E00059060196A11DB11D809356069093570667
:1038F000A0935806B0935906BF91AF919F918F91B5
:103900003F912F910F900FBE0F901F9018952FB7DA
:10391000F8946091520670915306809154069091EC
:1039200055062FBF08953FB7F894809156069091A1
:103930005706A0915806B091590626B5A89B05C018
:103940002F3F19F00196A11DB11D3FBFBA2FA92F1E
:10395000982F8827820F911DA11DB11DBC01CD019B
:1039600042E0660F771F881F991F4A95D1F7089587
:103970008F929F92AF92BF92CF92DF92EF92FF927F
:103980006B017C010E94931C4B015C01C114D104AA
:10399000E104F10401F10E94F11F0E94931CDC017B
:1039A000CB0188199909AA09BB09883E9340A10552
:1039B000B10560F321E0C21AD108E108F10888EEF0
:1039C000880E83E0981EA11CB11CC114D104E1042F
:1039D000F10419F7DBCFFF90EF90DF90CF90BF900D
:1039E000AF909F908F9008958230910538F0880FA6
:1039F000991F880F991F05970197F1F708957894FB
:103A000084B5826084BD84B5816084BD85B58260E3
:103A100085BD85B5816085BDEEE6F0E08081816081
:103A20008083E1E8F0E01082808182608083808181
:103A300081608083E0E8F0E0808181608083E1EB59
:103A4000F0E0808184608083E0EBF0E08081816041
:103A50008083EAE7F0E080818460808380818260F7
:103A600080838081816080838081806880831092E0
:103A7000C10008958E3008F08E5020910E0190E420
:103A8000299F900111248770822B80937C00809164
:103A90007A00806480937A0080917A0086FDFCCF62
:103AA000809178002091790090E0922B08951F93E7
:103AB000CF93DF93182FEB0161E00E94DF1D209769
:103AC00011F460E004C0CF3FD10539F461E0812FEB
:103AD000DF91CF911F910C941B1EE12FF0E0E8576E
:103AE000FF4FE491E330F9F048F4E130B9F0E2300F
:103AF000A1F584B5806284BDC8BD34C0E730E9F06B
:103B0000E83019F1E43049F58091800080628093BB
:103B10008000D0938B00C0938A0024C084B5806855
:103B200084BDC7BD1FC080918000806880938000E5
:103B3000D0938900C093880015C08091B000806840
:103B40008093B000C093B3000DC08091B00080623C
:103B50008093B000C093B40005C0C038D1050CF00C
:103B6000B5CFAFCFDF91CF911F910895833081F012
:103B700028F4813099F08230A1F008958730A9F0BF
:103B80008830B9F08430D1F4809180008F7D03C0FB
:103B9000809180008F7780938000089584B58F771F
:103BA00002C084B58F7D84BD08958091B0008F7769
:103BB00003C08091B0008F7D8093B0000895CF93B3
:103BC000DF9390E0FC01E456FF4F2491FC01E055A7
:103BD000FF4F8491882361F190E0880F991FFC01C9
:103BE000E852FF4FC591D491FC01E253FF4FA591DC
:103BF000B491611109C09FB7F89488812095822300
:103C00008883EC912E230BC0623061F49FB7F89447
:103C10008881322F309583238883EC912E2B2C932F
:103C20009FBF06C08FB7F894E8812E2B28838FBFE3
:103C3000DF91CF9108951F93CF93DF93282F30E02A
:103C4000F901E857FF4F8491F901E456FF4FD491F1
:103C5000F901E055FF4FC491CC23C1F0162F81111B
:103C60000E94B61DEC2FF0E0EE0FFF1FE253FF4F56
:103C7000A591B4919FB7F894111104C08C91D0957F
:103C8000D82302C0EC91DE2BDC939FBFDF91CF9154
:103C90001F910895CF93DF93282F30E0F901E85763
:103CA000FF4F8491F901E456FF4FD491F901E0559B
:103CB000FF4FC491CC2391F081110E94B61DEC2FCF
:103CC000F0E0EE0FFF1FEC53FF4FA591B491EC9184
:103CD000ED2381E090E021F480E002C080E090E0FC
:103CE000DF91CF9108950895FC01808191810C941A
:103CF000DA20CF93DF93EC0188819981009711F04E
:103D00000E94DA20198218821D821C821B821A826C
:103D1000DF91CF9108950F931F93CF93DF93EC0121
:103D20008B016F5F7F4F888199810E94632100978B
:103D300031F0998388831B830A8381E001C080E08E
:103D4000DF91CF911F910F910895CF93DF93EC01F5
:103D500088819981892B29F08A819B818617970711
:103D600060F4CE010E948B1E882341F08C819D81DE
:103D7000892B19F4E881F981108281E0DF91CF91DC
:103D80000895EF92FF920F931F93CF93DF93EC016F
:103D90007B018A01BA010E94A51E811104C0CE01D7
:103DA0000E94791E07C01D830C83B7018881998109
:103DB0000E943222CE01DF91CF911F910F91FF908F
:103DC000EF900895FC0111821082138212821582F5
:103DD00014826115710551F0FB0101900020E9F793
:103DE0003197AF01461B570B0C94C11E08950F93DA
:103DF0001F93CF93DF938C01EB01FC0180819181B4
:103E00000097D1F0688179816115710599F023E7F8
:103E10003EE1232B79F0428153812C813D81421771
:103E2000530740F00E9432228C819D81F8019583D6
:103E3000848313C00E94DA2088819981F8019183DC
:103E400080838A819B81938382838C819D819583EA
:103E50008483198218821B821A821D821C82DF9140
:103E6000CF911F910F910895CF93DF93EC01FB0148
:103E70008617970761F0608171816115710529F0DE
:103E8000448155810E94C11E02C00E94791ECE014C
:103E9000DF91CF910895CF93DF93EC0186179707B9
:103EA00011F00E94F71ECE01DF91CF910895CF93BC
:103EB000DF93EC016115710559F0FB0101900020C1
:103EC000E9F73197AF01461B570B0E94C11E02C094
:103ED0000E94791ECE01DF91CF9108950F931F9319
:103EE000CF93DF93CDB7DEB762970FB6F894DEBFFE
:103EF0000FBECDBF8C01CB01F8011182108213825D
:103F000012821582148250E0BE016F5F7F4F0E94C3
:103F10003922BE016F5F7F4FC8010E94571F629612
:103F20000FB6F894DEBF0FBECDBFDF91CF911F91CA
:103F30000F910895EF92FF920F931F93CF93DF930A
:103F40006115710511F480E01CC041155105C1F0E7
:103F50007B01EC018C819D818A01080F191FB8013A
:103F6000CE010E94A51E882371F3288139818C819E
:103F70009D81B701820F931F0E9432221D830C8303
:103F800081E0DF91CF911F910F91FF90EF90089505
:103F9000FB0144815581608171810C949A1F6115E8
:103FA000710551F0FB0101900020E9F73197AF0155
:103FB000461B570B0C949A1F80E00895CF93DF9314
:103FC000EC01FB0144815581608171810E949A1F3F
:103FD000811103C0CE010E94791ECE01DF91CF91E5
:103FE0000895089597FB072E16F4009407D077FDE7
:103FF00009D00E94282007FC05D03EF490958195B9
:104000009F4F0895709561957F4F0895A1E21A2EF4
:10401000AA1BBB1BFD010DC0AA1FBB1FEE1FFF1F6C
:10402000A217B307E407F50720F0A21BB30BE40BBC
:10403000F50B661F771F881F991F1A9469F7609503
:104040007095809590959B01AC01BD01CF010895BD
:10405000AA1BBB1B51E107C0AA1FBB1FA617B707AE
:1040600010F0A61BB70B881F991F5A95A9F78095CA
:104070009095BC01CD010895EE0FFF1F0590F491BE
:10408000E02D09940F931F93CF93DF938230910516
:1040900010F482E090E0E0915C06F0915D0620E093
:1040A00030E0A0E0B0E0309719F140815181028109
:1040B000138148175907C8F08417950769F41097BA
:1040C00031F012960C93129713961C9327C000930D
:1040D0005C0610935D0622C02115310519F04217C8
:1040E000530718F49A01BD01EF01DF01F801DBCF9E
:1040F00021153105F9F0281B390B2430310580F4E6
:104100008A819B816115710521F0FB019383828374
:1041100004C090935D0680935C06FE01329644C015
:10412000FE01E20FF31F81939193225031093983ED
:1041300028833AC020915A0630915B06232B41F424
:10414000209102013091030130935B0620935A06BF
:1041500020910001309101012115310541F42DB765
:104160003EB74091040150910501241B350BE091AD
:104170005A06F0915B06E217F307A0F42E1B3F0BE3
:104180002817390778F0AC014E5F5F4F24173507C9
:1041900048F04E0F5F1F50935B0640935A06819381
:1041A000919302C0E0E0F0E0CF01DF91CF911F9149
:1041B0000F910895CF93DF93009709F481C0FC011C
:1041C000329713821282A0915C06B0915D0610971F
:1041D00081F420813181820F931F20915A06309102
:1041E0005B062817390751F5F0935B06E0935A06F2
:1041F00067C0ED0120E030E0CE17DF0740F44A81D0
:104200005B819E0141155105F1F0EA01F5CFD383A1
:10421000C28340815181840F951FC817D90759F473
:1042200088819981840F951F0296918380838A816A
:104230009B81938382832115310529F4F0935D06D8
:10424000E0935C063DC0E901FB83EA834991599103
:10425000C40FD51FEC17FD0761F480819181840F95
:10426000951F0296E90199838883828193819B83BC
:104270008A83E0E0F0E012968D919C91139700976D
:1042800019F0FD01DC01F7CF8D919C9111979D01F3
:104290002E5F3F4F820F931F20915A0630915B068D
:1042A0002817390769F4309729F410925D061092A7
:1042B0005C0602C013821282B0935B06A0935A067A
:1042C000DF91CF910895A0E0B0E0E9E6F1E20C942F
:1042D0009322EC01009721F4CB010E944220B4C04C
:1042E000FC01E60FF71F9C0122503109E217F3078A
:1042F00008F4A8C0D9010D911C9111970617170752
:10430000B0F00530110508F49BC0C801049786176A
:10431000970708F495C002501109061B170B01936B
:1043200011936D937C93CF010E94DA2089C05B01C9
:10433000A01AB10A4C01800E911EA0915C06B091AA
:104340005D06612C712CE12CF12C109709F446C00C
:104350008D919C911197A815B905B1F56C0142E0BA
:10436000C40ED11CCA14DB0478F14C018A189B08D6
:10437000640142E0C40ED11C1296BC9012971396B1
:10438000AC91B5E0CB16D10440F0B282A383918208
:104390008082D9016D937C9309C00E5F1F4F800FFF
:1043A000911FF90191838083EB2DFA2FE114F10421
:1043B00031F0D7011396FC93EE93129741C0F0931E
:1043C0005D06E0935C063CC06816790608F43C0183
:1043D0007D0112960D90BC91A02DB7CF80915A0609
:1043E00090915B0688169906E1F466167706C8F484
:1043F0008091000190910101009741F48DB79EB723
:104400004091040150910501841B950BE817F907B1
:10441000C8F4F0935B06E0935A06F9017183608358
:104420000FC0CB010E9442207C01009759F0A801E7
:10443000BE010E942922CE010E94DA20C70104C0D9
:10444000CE0102C080E090E0CDB7DEB7EEE00C9484
:10445000AF22FB01DC0102C001900D92415050409F
:10446000D8F70895FB01DC0101900D920020E1F7DF
:1044700008954532510520F4423010F00C94442246
:10448000FB011082CB010895BB274A3031F49923F8
:1044900022F4BDE2909581959F4F0C945022BB274A
:1044A000FB015527AA27880F991FAA1FA41710F0F0
:1044B000A41B83955051B9F7A05DAA3308F0A95DFC
:1044C000A193009779F7B111B1931192CB010C949C
:1044D0006922DC01FC01672F71917723E1F73297A4
:1044E00004C07C916D9370836291AE17BF07C8F3CF
:1044F0000895F999FECF92BD81BDF89A992780B5AC
:104500000895262FF999FECF1FBA92BD81BD20BD17
:104510000FB6F894FA9AF99A0FBE019608952F9261
:104520003F924F925F926F927F928F929F92AF9243
:10453000BF92CF92DF92EF92FF920F931F93CF9390
:10454000DF93CDB7DEB7CA1BDB0B0FB6F894DEBF27
:104550000FBECDBF09942A88398848885F846E844D
:104560007D848C849B84AA84B984C884DF80EE8097
:10457000FD800C811B81AA81B981CE0FD11D0FB6A0
:10458000F894DEBF0FBECDBFED010895F894FFCFC4
:1045900000005E06200004006802CE1BCE1B010056
:1045A00000400014005400000000009E00AE00B067
:1045B000009F00706F77657220737570706C790062
:1045C0004F4646006D61782074656D706572617448
:1045D0007572650065786365656465640043004DC8
:1045E000656D6F72792072656164004D656D6F72E3
:1045F00079207361766564003E00202000743D00E0
:104600006E6F6E200046756E3D004F4646200025B9
:10461000002E00553A00573A00493A0000000000C9
:10462000FF00EB0108012C014001A101C3019E0321
:104630002804ED01000104013C01E501AE04B204CF
:104640006C02E503000000001D057B052D052D050E
:104650001E052D052D0521052D052E0541057A0583
:104660007A0500000000BB05CD05BC05BC05BE05F4
:10467000BC05BC05C105BC05BC05BC05BD05BD052B
:1046800000000000F7051E061C061C06F8051C06A7
:104690001C06FB051C061C061C061D061D0600004C
:1046A000000052069F0653065E066906A706C0066E
:1046B0006C064907A10683069E069E0600000000C0
:1046C0000108540802080D081808770904091B0896
:1046D0005608BC0846082A09C20800000000ED0977
:1046E0000E0A0C0A0C0AEE090C0A0C0A0C0A0C0A37
:1046F0000C0AF1090D0A0D0A76657220312E300080
:104700005E00BC00770100000000E611E01A3711DE
:104710003A11000000002118F4173711F317C817D9
:04472000D017E417B3
:00000001FF
