:1000000031C055C054C053C052C051C050C04FC081
:100010004EC0BAC14CC0F1C322C449C048C047C099
:1000200046C045C044C001020408102040800102BF
:10003000040810200102040810200404040404042D
:10004000040402020202020203030303030300008A
:100050000000380035003200000000003700340096
:1000600031005D0411241FBECFE5D4E0DEBFCDBF5B
:1000700010E0A0E6B0E0E8EFFAE002C005900D92D3
:10008000AE3EB107D9F721E0AEEEB0E001C01D925F
:10009000A33DB207E1F710E0C4E6D0E003C0229729
:1000A000FE0124D5C236D107D1F749D423C5A8CF44
:1000B00040ED57E060E070E086EF90E0D4D020E0C3
:1000C00032EC41E050E066E371E086EF90E0DDD095
:1000D00086EF90E0C6D060E670E0809127019091B5
:1000E000280175D46AE070E080E090E0C7D141E07B
:1000F00060E086EF90E02ED161E08DE004C2CF9207
:10010000DF92EF92FF920F931F9388D1672B682B9A
:10011000692B39F483D1623071058105910508F4AA
:1001200073C086EF90E077D06093EE007093EF009D
:100130008093F0009093F1000091F2001091F30091
:100140002091F4003091F500601771078207930742
:1001500040F46093F2007093F3008093F400909366
:10016000F5000091F2001091F3002091F40030911D
:10017000F5006B017C01C01AD10AE20AF30A97016B
:1001800086010A3F110521053105F0F16093F20067
:100190007093F3008093F4009093F50086EF90E065
:1001A00060D062E770E080912701909128010FD420
:1001B0006AE770E0809127019091280108D42ED140
:1001C000AB01BC012AE030E0809127019091280129
:1001D00056D46CE770E08091270190912801F7D305
:1001E00065E070E080E090E049D16AE070E080E096
:1001F00090E044D161E086EF90E01F910F91FF9075
:10020000EF90DF90CF9069C01F910F91FF90EF901A
:10021000DF90CF90089502C10F931F93CF93DF9388
:10022000EC01662351F0FAD069837A838B839C8337
:10023000DF91CF911F910F910895F0D009811A811C
:100240002B813C81601B710B820B930B6233710518
:100250008105910540F763E070E080E090E00ED109
:10026000ECCF60E0D9CFFC0113AA14AA15AA16AAF4
:1002700011821282138214824115510561057105A4
:1002800019F0CB01BA01FAC00895FB01BA01A90126
:10029000DC01D296FC93EE93D19726E0CF014BC2BE
:1002A0001F93CF93DF93EC01162F65E870E089A9C7
:1002B0009AA98DD34AE050E0612F89A99AA9EBD37E
:1002C0006CE870E089A99AA982D362E370E080E0CB
:1002D00090E0DF91CF911F91D1C01F93CF93DF9317
:1002E000EC01162F8D81882381F189A99AA9DC015F
:1002F000ED91FC910480F581E02D0995892BA9F3FE
:1003000007C02637310511F12835310509F41D8262
:1003100089A99AA9DC01ED91FC910480F581E02D79
:100320000995181619068CF489A99AA9DC01ED9192
:10033000FC910680F781E02D09959C013327233637
:100340003105F9F6612FCE01ABDF83E6DF91CF9166
:100350001F9108950F931F93CF93DF931F92CDB7F3
:10036000DEB78C01662341F081E0F801858360E00F
:10037000C8014983B2DF4981F80145830F90DF91BD
:10038000CF911F910F9108951F920F920FB60F9268
:1003900011242F933F938F939F93AF93BF9380919B
:1003A0002E0190912F01A0913001B0913101309137
:1003B0002D0123E0230F2D3720F40196A11DB11D3F
:1003C00005C026E8230F0296A11DB11D20932D0123
:1003D00080932E0190932F01A0933001B0933101AF
:1003E0008091320190913301A0913401B091350197
:1003F0000196A11DB11D8093320190933301A0930A
:100400003401B0933501BF91AF919F918F913F918E
:100410002F910F900FBE0F901F9018952FB7F89443
:1004200060912E0170912F018091300190913101E6
:100430002FBF08953FB7F894809132019091330116
:10044000A0913401B091350122B708B600FE05C075
:100450002F3F19F00196A11DB11D3FBF6627782FD0
:10046000892F9A2F620F711D811D911D42E0660F29
:10047000771F881F991F4A95D1F70895CF92DF9271
:10048000EF92FF92CF93DF936B017C01D3DFEB01FF
:10049000C114D104E104F10479F003D3CBDF6C1B68
:1004A0007D0B683E7340A0F381E0C81AD108E108D3
:1004B000F108C851DC4FECCFDF91CF91FF90EF9066
:1004C000DF90CF900895789483B7826083BF83B71D
:1004D000816083BF89B7816089BF1EBC8EB5826091
:1004E0008EBD8EB581608EBD8FB581608FBD85B5A7
:1004F000846085BD85B5806485BD329A319A309A15
:10050000379A1AB80895CF93DF9390E0FC01EA5D23
:10051000FF4F2491FC01E65CFF4F8491882349F151
:1005200090E0880F991FFC01E85AFF4FA591B49104
:10053000825B9F4FFC01C591D4919FB7611108C0A8
:10054000F8948C91209582238C93888182230AC011
:10055000623051F4F8948C91322F309583238C9330
:100560008881822B888304C0F8948C91822B8C9391
:100570009FBFDF91CF910895FC01818D228D90E086
:10058000805C9F4F821B91098F7399270895FC010E
:10059000918D828D981731F0828DE80FF11D858D38
:1005A00090E008958FEF9FEF0895FC01918D828D6B
:1005B000981761F0828DDF01A80FB11D5D968C91B7
:1005C000928D9F5F9F73928F90E008958FEF9FEFC2
:1005D000089584E594E0892B39F080E090E0892B40
:1005E00019F062D181110CCD0895FC01848DDF01D9
:1005F000A80FB11DA35ABF4F2C91848D90E0019696
:100600008F739927848FA689B7892C93A089B18984
:100610008C9180648C93938D848D981306C002888E
:10062000F389E02D80818F7D80830895CF93DF93C0
:10063000EC01888D8823C1F0EA89FB89808185FDE2
:1006400005C0A889B9898C9186FD0EC00FB607FC3C
:10065000F5CF808185FFF2CFA889B9898C9185FF7C
:10066000EDCFCE01C2DFE8CFDF91CF910895CF92D9
:10067000DF92FF920F931F93CF93DF931F92CDB71B
:10068000DEB76C01DC015B969C915B975C968C916C
:100690005C97981307C05096ED91FC91519780811B
:1006A00085FD31C0F601038D10E00F5F1F4F0F7302
:1006B0001127F02EF601848DF81210C00FB607FC3A
:1006C000F9CFD6015096ED91FC915197808185FF2D
:1006D000F1CFC601698389DF6981ECCF838DE80F93
:1006E000F11DE35AFF4F6083D6015B960C935B9735
:1006F0005296ED91FC91539780818062808381E0D6
:1007000058968C930DC0D6015696ED91FC91579753
:1007100060835096ED91FC91519780818064808335
:1007200081E090E00F90DF91CF911F910F91FF90AA
:10073000DF90CF900895BF92CF92DF92EF92FF9219
:10074000CF93DF93EC016A017B01B22EE889F9892E
:1007500082E08083411581EE58076105710599F0AB
:1007600060E079E08DE390E0A70196019BD12150F4
:100770003109410951095695479537952795211516
:1007800080E1380790F0E889F989108260E874E820
:100790008EE190E0A701960185D1215031094109F0
:1007A00051095695479537952795EC85FD853083FA
:1007B000EE85FF852083188E8B2D8068EC89FD895E
:1007C0008083EA89FB89808180618083EA89FB8953
:1007D000808188608083EA89FB898081806880834A
:1007E000EA89FB8980818F7D8083DF91CF91FF90A3
:1007F000EF90DF90CF90BF9008951F920F920FB6A9
:100800000F9211242F938F939F93EF93FF93E09177
:100810004601F09147018081E0914C01F0914D013A
:1008200082FD12C0908180914F018F5F8F73209164
:100830005001821751F0E0914F01F0E0EA5CFE4F69
:10084000958F80934F0101C08081FF91EF919F911F
:100850008F912F910F900FBE0F901F9018951F92A0
:100860000F920FB60F9211242F933F934F935F93E4
:100870006F937F938F939F93AF93BF93EF93FF9368
:1008800086E391E0B2DEFF91EF91BF91AF919F912E
:100890008F917F916F915F914F913F912F910F9029
:1008A0000FBE0F901F90189586E391E065DE21E062
:1008B000892B09F420E0822F0895109239011092BB
:1008C000380188EE93E0A0E0B0E080933A01909385
:1008D0003B01A0933C01B0933D0181EE90E09093E9
:1008E00037018093360180E490E090934301809338
:1008F000420129E230E030934501209344012BE28C
:1009000030E030934701209346012AE230E03093F3
:1009100049012093480190934B0180934A018CE256
:1009200090E090934D0180934C0110924F011092F2
:100930005001109251011092520108950895C3DDA3
:10094000FDDFB6DBC9EED2E0DADB2097E9F341DE6A
:10095000FBCFCF92DF92EF92FF920F931F93CF9333
:10096000DF936C017A01EB01E60EF71E00E010E068
:10097000CE15DF0561F06991D601ED91FC910190F2
:10098000F081E02DC6010995080F191FF1CFC801AC
:10099000DF91CF911F910F91FF90EF90DF90CF905B
:1009A00008956115710581F0DB010D900020E9F7D4
:1009B000AD0141505109461B570BDC01ED91FC91F3
:1009C0000280F381E02D099480E090E00895E9CF62
:1009D0008F929F92AF92BF92CF92DF92EF92FF924F
:1009E0000F931F93CF93DF93CDB7DEB7A1970FB6C9
:1009F000F894DEBF0FBECDBF7C01C42EE52FCB0126
:100A0000D22E19A221E02D1510F02AE0D22E8E014F
:100A10000F5D1F4F8D2C912CA12CB12C6C2D7E2F96
:100A2000A50194013FD08C2DD29E80191124015034
:100A300011098A3014F4805D01C0895CF80180835B
:100A4000211531054105510521F0C22EE32FCA01C0
:100A5000E5CFB801C701A5DFA1960FB6F894DEBFB8
:100A60000FBECDBFDF91CF911F910F91FF90EF90FF
:100A7000DF90CF90BF90AF909F908F9008952115F9
:100A8000310541F4DC01ED91FC910190F081E02D04
:100A9000642F09949DCF9A01462F50E060E070E0EA
:100AA000EECF0895A1E21A2EAA1BBB1BFD010DC0BB
:100AB000AA1FBB1FEE1FFF1FA217B307E407F5070E
:100AC00020F0A21BB30BE40BF50B661F771F881FEA
:100AD000991F1A9469F760957095809590959B0180
:100AE000AC01BD01CF010895EE0FFF1F0590F491F9
:080AF000E02D0994F894FFCFFA
:100AF800564D4450565F317C315F564D4450560D2B
:100B08000A00564D4450455F31007C005F564D4405
:100B180050450D0A00564D4450435F005F564D4402
:100B280050430D0A004572726F723A204174746521
:100B38006D707420746F2073657420612072656114
:100B4800642D6F6E6C79207661726961626C6520C4
:100B58006F7220646174612074797065206E6F749F
:100B680020737570706F727465640D0A0000000060
:0E0B7800003703A904BC02D502C70216030011
:00000001FF
