S0140000706F7765725F737570706C792E73726563D7
S11300000C9472000C947A1C0C94A11C0C949A000D
S11300100C949A000C949A000C949A000C949A00F4
S11300200C949A000C949A000C949A000C949A00E4
S11300300C949A000C949A000C949A000C949A00D4
S11300400C94C81C0C949A000C949A000C949A007A
S11300500C949A000C949A000C949A000C949A00B4
S11300600C9424170C949A00005EBCE2613FDD837B
S1130070C29C7E20A3FD1F41009D23BE46DB65F884
S11300808C11AF32CA57E974000000080002010065
S1130090000304070000000000000000010204083F
S11300A010204080010204081020010204081020DE
S11300B0040404040404040402020202020203030A
S11300C003030303000000002300260029000000AE
S11300D00000250028002B00000000002400270059
S11300E02A00131911241FBECFEFD8E0DEBFCDBF05
S11300F012E0A0E0B1E0E6EAF6E402C005900D9259
S1130100A439B107D9F723E0A4E9B2E001C01D92F4
S1130110A038B207E1F710E0C2E7D0E004C02197AD
S1130120FE010E94C720C137D107C9F70E94561BA0
S11301300C9451230C9400000895FC012685378506
S113014044E6429FC001439F900D11246085718550
S11301500E947D20CB0108950C94691BCF93DF93FB
S1130160EC018C819D81861797071CF01F861E86E3
S113017012C0681B790B072E000C880B990B0E9488
S1130180331A2A853B854C855D850E94E81A0E94B6
S1130190FB197F876E87888599856E857F8586178D
S11301A097070CF4BC018A81DF91CF910C94E21D76
S11301B00F931F93FC01862F2BE131E031832083C1
S11301C028E230E03583248320E530E0378326833A
S11301D02FEF30E03187208700E010E020EC30E49E
S11301E0028713872487358717861686628373836D
S11301F061E01F910F910C946A1EDC0112968D919F
S11302009C911397DC01ED91FC910190F081E02D1C
S113021009940895FC01828193810C942B12FC01B2
S1130220828193810C943912CF92DF92EF92FF92E4
S11302300F93CF93DF93EC016B018CE090E00E946D
S1130240651B7C0100E022E040E167E20E94C411EA
S1130250FB82EA82C7010E9475128A819B810E94F7
S11302602B1240E062E08A819B810E94391263E292
S113027071E08A819B810E94B81B41E064E08A811D
S11302809B810E943912B6018A819B81DF91CF91B3
S11302900F91FF90EF90DF90CF900C94B81BCF9309
S11302A0DF93EC018A819B810E942B1240E066E07F
S11302B08A819B810E94391260E371E08A819B816B
S11302C0DF91CF910C94B81BCF93DF93EC018A811B
S11302D09B8140E06330710561F469E00E9439124A
S11302E06BE671E08A819B810E94B81B40E060E06C
S11302F00EC06430710591F460E00E9439126BE61F
S113030071E08A819B810E94B81B40E069E08A8188
S11303109B810E94391264E371E011C060E00E9485
S113032039126BE671E08A819B810E94B81B40E020
S113033069E08A819B810E9439126BE671E08A81AF
S11303409B81DF91CF910C94B81BFC018281938136
S11303500C94B81B8F929F92AF92BF92DF92EF9250
S1130360FF920F931F93CF93DF938C01D62E4536C4
S1130370510514F044E650E0BA01550F880B990B6F
S11303800E94331A20E030E040E851E40E94E81A69
S113039020E030E048EC52E40E9489194B015C01F2
S11303A020E030E0A9010E94E31A20E030E040E0C0
S11303B05FE387FD05C0C501B4010E94181904C09C
S11303C0C501B4010E9417190E94FB19EB01E12C2D
S11303D0F12CEC16FD0624F08FE0E82EF12C18C069
S11303E04D2D6E2DD80112968D919C9113970E94DC
S11303F03912F80182819381DC01ED91FC91019025
S1130400F081E02D6FEF0995BFEFEB1AFB0AE1CF06
S1130410EC16FD06A4F04D2D6E2DF801828193811A
S11304200E9439126BE671E0D80112968D919C916D
S113043013970E94B81BB1E0EB1AF108E9CFDF91E2
S1130440CF911F910F91FF90EF90DF90BF90AF90ED
S11304509F908F900895CF92DF92EF92FF920F9327
S11304601F93CF93DF9300D000D000D0CDB7DEB779
S11304708C016A017B01FC01828193810E942B1211
S113048040E060E0F801828193810E94391266E3C2
S113049071E0F801828193810E94B81B41E060E021
S11304A0F801828193810E94391266E471E0F801B7
S11304B0828193810E94B81B41E069E0F801828146
S11304C093810E94391220E030E040E251E4C701F8
S11304D0B6010E94E81A0E94FB19CB016AE070E0A1
S11304E00E947D204AE0CE0101960E94F91F6FE42C
S11304F071E0CE0101960E945A20BE016F5F7F4FCA
S1130500F801828193810E94AA1BCE0101960E9468
S1130510FF1E26960FB6F894DEBF0FBECDBFDF9147
S1130520CF911F910F91FF90EF90DF90CF9008959E
S11305300F931F93CF93DF93EC018B018A819B81EF
S11305400E942B1240E061E08A819B810E94391253
S113055061E571E08A819B810E94B81B40E06DE0F7
S11305608A819B810E9439124AE050E0B8018A8155
S11305709B81DF91CF911F910F910C94521C0F938B
S11305801F93CF93DF93EC018B018A819B810E949F
S11305902B1240E061E08A819B810E9439126DE553
S11305A071E08A819B810E94B81B40E06DE08A81E2
S11305B09B810E9439124AE050E0B8018A819B81F4
S11305C0DF91CF911F910F910C94521C4AE050E09F
S11305D0FC01828193810C94521C0C94691BEF9250
S11305E0FF920F931F93CF93DF9300D000D000D0DE
S11305F0CDB7DEB78C017B016CE671E00E946D1F04
S11306004AE0B701CE0101960E94F91FBE016F5F57
S11306107F4FC8010E94D61FCE0101960E94FF1E83
S1130620F801848195818230910519F46BE671E0BB
S113063004C0029728F46AE671E0C8010E945A20B7
S1130640C80126960FB6F894DEBF0FBECDBFDF916A
S1130650CF911F910F91FF90EF900895CF92DF9269
S1130660EF92FF920F931F93CF93DF9300D000D0AC
S113067000D0CDB7DEB78C016B017A0140E060E0B9
S1130680FC01828193810E9439126DE671E0F801C8
S1130690828193810E94B81B40E062E0F80182816C
S11306A093810E943912F9ECCF16FFEFDF061CF498
S11306B060E771E01AC0B601CE0101960E94EF0214
S11306C0BE016F5F7F4FF801828193810E94AA1B54
S11306D0CE0101960E94FF1E40E065E0F801828190
S11306E093810E9439126FE471E0F8018281938151
S11306F00E94B81B40E068E0F801828193810E9467
S1130700391265E771E0F801828193810E94B81B78
S113071040E06CE0F801828193810E943912E11477
S1130720F10419F46AE771E01AC0B701CE01019629
S11307300E94EF02BE016F5F7F4FF80182819381B7
S11307400E94AA1BCE0101960E94FF1E40E06FE0AA
S1130750F801828193810E9439126FE771E0F801F8
S1130760828193810E94B81B26960FB6F894DEBF4F
S11307700FBECDBFDF91CF911F910F91FF90EF90EE
S1130780DF90CF900895AF92BF92CF92DF92EF9215
S1130790FF920F931F93CF93DF93CDB7DEB72C97C0
S11307A00FB6F894DEBF0FBECDBF8C0169017A018C
S11307B06CE671E00E946D1F20E030E040E251E4FD
S11307C0C701B6010E94E81A0E94FB19CB016AE036
S11307D070E00E947D205C014AE0CE0101960E94F7
S11307E0F91FBE016F5F7F4FC8010E94D61FCE0163
S11307F001960E94FF1EF801848195818230910543
S1130800A1F461E871E0C8010E945A204AE0B501F0
S1130810CE0101960E94F91FBE016F5F7F4FC80190
S11308200E945320CE0101963EC00297F0F561E884
S113083071E0C8010E945A2020E030E048EC52E404
S1130840C701B6010E94E81A0E94FB19CB0164E6B5
S113085070E00E947D204AE0BC01CE0107960E9410
S1130860F91F8B859C850197B1F46EE672E0CE0189
S113087001960E946D1FBE01695F7F4FCE010196F4
S11308800E946920BC01CE0107960E94BF1FCE01C1
S113089001960E94FF1EBE01695F7F4FC8010E943E
S11308A05320CE0107960E94FF1EF8018481958192
S11308B0039729F46BE671E0C8010E945A20C8012D
S11308C02C960FB6F894DEBF0FBECDBFDF91CF914B
S11308D01F910F91FF90EF90DF90CF90BF90AF905A
S11308E008958F929F92AF92BF92EF92FF920F93CF
S11308F01F93CF93DF9300D000D000D0CDB7DEB7E5
S11309007C014801590140E061E0FC01828193814E
S11309100E94391263E871E0F701828193810E9499
S1130920B81B40E063E0F701828193810E94391291
S1130930A5019401B701CE0101960E94C303BE0133
S11309406F5F7F4FF701828193810E94AA1BCE01C2
S113095001960E94FF1E26960FB6F894DEBF0FBEC6
S1130960CDBFDF91CF911F910F91FF90EF90BF907A
S1130970AF909F908F900895CF92DF92EF92FF9265
S11309800F931F93CF93DF9300D000D000D0CDB747
S1130990DEB78C016A017B0141E061E0FC018281E8
S11309A093810E94391266E871E0F8018281938193
S11309B00E94B81B41E063E0F801828193810E94A8
S11309C03912A7019601B801CE0101960E94C30312
S11309D0BE016F5F7F4FF801828193810E94AA1B41
S11309E0CE0101960E94FF1E26960FB6F894DEBF34
S11309F00FBECDBFDF91CF911F910F91FF90EF906C
S1130A00DF90CF9008954F925F926F927F928F9272
S1130A109F92AF92BF92EF92FF920F931F93CF9347
S1130A20DF9300D000D000D0CDB7DEB77C012A011F
S1130A303B014801590140E06AE0FC018281938155
S1130A400E94391269E871E0F701828193810E9462
S1130A50B81B40E06CE0F701828193810E94391257
S1130A60A3019201B701CE0101960E94C303BE0106
S1130A706F5F7F4FF701828193810E94AA1BCE0191
S1130A8001960E94FF1E41E06AE0F7018281938192
S1130A900E94391269E871E0F701828193810E9412
S1130AA0B81B41E06CE0F701828193810E94391206
S1130AB0A5019401B701CE0101960E94C303BE01B2
S1130AC06F5F7F4FF701828193810E94AA1BCE0141
S1130AD001960E94FF1E26960FB6F894DEBF0FBE45
S1130AE0CDBFDF91CF911F910F91FF90EF90BF90F9
S1130AF0AF909F908F907F906F905F904F900895EC
S1130B0020E931E0FC01318320830895089585E0D4
S1130B1090E00895DC0152968D919C915397DC01ED
S1130B20ED91FC910488F589E02D09940895CF9303
S1130B30DF93EC01AC89BD89EE89FF896081718105
S1130B40ED91FC9111970480F581E02DCD01DF91A9
S1130B50CF9109940F931F93CF93DF93EC01EA890C
S1130B60FB890190F081E02D00A111A18C899D8960
S1130B70DC01ED91FC910680F781E02D0995EE8969
S1130B80FF8960817181AC018A899B89F80109958B
S1130B90EA89FB890190F081E02D068D178D8C89FF
S1130BA09D89DC01ED91FC910680F781E02D09958A
S1130BB0AC0161E070E08A899B89F801DF91CF91F3
S1130BC01F910F91099408950C94691BEF92FF9261
S1130BD00F931F93CF93DF93EC017A018FEF9FEF75
S1130BE09B838A831D821C829F838E8300E010E096
S1130BF020E83FEB088719872A873B879D878C87E6
S1130C0080E09EEE9F878E87998B888B88EB91E09E
S1130C10998388837B8B6A8B80E190E00E94651BBB
S1130C208C0166E070E00E94D8001D8B0C8BFF8A5B
S1130C30EE8ADF91CF911F910F91FF90EF9008956D
S1130C4008950895089581E090E00895DC01529696
S1130C508D919C915397DC01ED91FC910680F78175
S1130C60E02D09940C94691B0F931F93FC018FEFE3
S1130C709FEF93838283158214829783868300E097
S1130C8010E020E83FEB00871187228733879587A0
S1130C90848780E09EEE97878687918B808B86ED94
S1130CA091E091838083738B628B1F910F910895E0
S1130CB0089586E090E00895CF93DF93FC01C28904
S1130CC0D389A489B5890688F789E02D20853185E3
S1130CD04285538518966D917D918D919C911B97BA
S1130CE00E94E81AAB01BC01E881F98102A0F3A1DA
S1130CF0E02DCE01DF91CF910994089508950C94CD
S1130D00691BCF92DF92EF92FF92FC018FEF9FEF6E
S1130D10938382831582148297838683C12CD12C7A
S1130D20A0E8EA2EAFEBFA2EC086D186E286F386DF
S1130D309587848780E09EEE97878687918B808B4A
S1130D4084EF91E091838083338B228B578B468B86
S1130D50758B648BFF90EF90DF90CF90089508958A
S1130D60FC01248135812E3F310524F42F5F3F4F50
S1130D70358324830895FC012481358112161306DA
S1130D8024F42150310935832483089584E090E0CC
S1130D9008950F931F93FC0182899389008511851F
S1130DA0228533854489558966897789DC01ED91EB
S1130DB0FC910088F189E02D09951F910F91089508
S1130DC00F931F93CF93DF93EC01EA89FB89019082
S1130DD0F081E02D02891389E881F9810084F1858D
S1130DE0E02D0995BC018A899B89F801DF91CF9197
S1130DF01F910F91099408950C94691BFC0164815F
S1130E00758186810C94E21DCF93FC01C48180E03E
S1130E1090E00E940423C81729F06C2F80E090E032
S1130E200E940C2360E071E080E090E0CF910C948C
S1130E30431DCF93DF93EC0180E090E00E940423F4
S1130E4090E09D838C8360E071E080E090E0DF912E
S1130E50CF910C94431D5F926F927F928F929F92D9
S1130E60AF92BF92CF92DF92EF92FF920F931F93B4
S1130E70CF93DF93CDB7DEB7562E8A016DB67EB61B
S1130E806A0121E0C21AD108CA01880F991FEDB77F
S1130E90FEB7E81BF90B0FB6F894FEBF0FBEEDBF0B
S1130EA02DB73EB72F5F3F4F79014901A12CB12CDB
S1130EB0A016B1061CF080E090E01EC0852D0E94B3
S1130EC0C51DF401819391934F01FFEFAF1ABF0A3F
S1130ED0EFCF419151912F5F3F4F60817181641732
S1130EE0750734F4DF0112976D937C93518340832B
S1130EF02C153D0574F301968017910724F4F7012E
S1130F0020E030E0F5CF17FF02C00F5F1F4F0E7FC8
S1130F10F701E00FF11F808191810FB6F8947EBE36
S1130F200FBE6DBEDF91CF911F910F91FF90EF9097
S1130F30DF90CF90BF90AF909F908F907F906F90F5
S1130F405F9008951F93CF93DF93EC016C857D85AB
S1130F5045E050E00E942B072BE0AC01249FC00128
S1130F60259F900D112497FF02C081509C4FBC0116
S1130F70672F770F770B65956595072E000C880B07
S1130F80990B0E94331A688779878A879B87688DB3
S1130F90798D8A8D9B8D0E94FB1945E050E0CE012E
S1130FA00E942B072BE0AC01249FC001259F900DCC
S1130FB0112497FF02C081509C4FBC01672F770F0B
S1130FC0770B65956595072E000C880B990B0E948D
S1130FD0331A6C8B7D8B8E8B9F8B11E02885398522
S1130FE04A855B850E94841918160CF410E0612F61
S1130FF08C8DDF91CF911F910C94A61E8F929F929E
S1131000AF92BF92CF92DF92EF92FF920F931F9312
S1131010CF93DF93EC01CB01D42EC52EB9012FEF72
S11310203FEF3B832A831D821C82812C912C20E874
S1131030A22E2FEBB22E88869986AA86BB8620E044
S11310403EEE3F872E87398B288B22E132E03983AD
S113105028838C8A9D8AAE8ABF8A9F838E83072EBB
S1131060000C880B990B0E94331A688F798F8A8F32
S11310709B8FDC86CD861D8F0C8F60E08D2D0E94AA
S11310806A1E688D798D8A8D9B8D0E94021A862F27
S113109060E00E946A1E61E08E810E946A1E61E027
S11310A08C8D0E946A1EFB8AEA8ADF91CF911F9180
S11310B00F91FF90EF90DF90CF90BF90AF909F90F3
S11310C08F9008950895FC01248135812E3F3105C8
S11310D024F42F5F3F4F358324830895FC0124813A
S11310E035811216130624F42150310935832483E3
S11310F0089583E090E00895CF92DF92EF92FF92FB
S11311000F931F93CF93DF93FC01C289D389C084CB
S1131110D184E284F38464817581072E000C880BEA
S1131120990B0E94331AAB01BC01E881F981068452
S1131130F785E02D97018601CE010995DF91CF91C6
S11311401F910F91FF90EF90DF90CF900895DC01F5
S113115052968D919C915397DC01ED91FC910288FC
S1131160F389E02D63E070E009940C94691BBF924D
S1131170CF92DF92EF92FF920F931F93CF93DF935F
S1131180CDB7DEB72A970FB6F894DEBF0FBECDBF3A
S11311908C01FC01B4846E01FBE0CF0ED11CCE01A6
S11311A001967C018B2D0E94C51DF70181939193BB
S11311B07F01CE16DF06B1F785E090E0BE01675FE0
S11311C07F4FFE0131962191319140815181421727
S11311D0530724F06E177F07B1F707C0DF0112979A
S11311E04D935C9331832083F5CF019751F78D8123
S11311F09E8125E1289FB001299F700D112477FF5E
S113120002C061507C4F672F770F770B659565950A
S1131210072E000C880B990B0E94331AF801608783
S11312207187828793872A960FB6F894DEBF0FBE24
S1131230CDBFDF91CF911F910F91FF90EF90DF9081
S1131240CF90BF900895FC016481758186810C94D0
S1131250E21D0F931F93CF93DF936115710559F02E
S11312606130710569F06230710561F503E010E0E9
S113127024E030E009C001E010E022E030E004C0E6
S113128002E010E023E030E0EC01C9010E940423F5
S113129090E02C813D8182179307A1F08A899B8974
S11312A0DC01ED91FC910284F385E02DB8010995F0
S11312B06E857F8580E090E0DF91CF911F910F9143
S11312C00C94431DDF91CF911F910F910895CF93FB
S11312D0DF93EC0181E090E00E94042390E09D8381
S11312E08C83DF91CF910895FF920F931F93CF9337
S11312F0DF93EC01F62E08811981C8010E940423B2
S1131300F81621F06F2DC8010E940C23CE01DF9145
S1131310CF911F910F91FF900895EF92FF920F9339
S11313201F93CF93DF9300D0CDB7DEB7611571055E
S113133051F06130710559F06230710549F523E0CF
S1131340E22EF12C07C0EE24E394F12C03C032E02A
S1131350E32EF12C8C01DC0114966C9182E090E078
S11313609A838983CE0101960E947409F8018289C7
S11313709389DC01ED91FC910484F585E02DB7019E
S11313800995F8016089718980E090E00E94431D0D
S11313900F900F90DF91CF911F910F91FF90EF90DD
S11313A00895CF93DF9300D0CDB7DEB7FC016481FD
S11313B081E090E09A838983CE0101960E947409AA
S11313C060E071E080E090E00E94431D0F900F9078
S11313D0DF91CF910895CF92DF92EF92FF92CF9356
S11313E0DF93EC01CA014FEF5FEF5B834A831D82F9
S11313F01C82C12CD12C40E8E42E4FEBF42EC8867D
S1131400D986EA86FB8640E05EEE5F874E87598B7D
S1131410488B40E352E0598348837F836E838C87F3
S11314209D873B8B2A8B60E00E946A1E61E08E815F
S1131430DF91CF91FF90EF90DF90CF900C946A1ED4
S1131440089582E090E008950F931F93CF93DF9364
S1131450EC01EA89FB890190F081E02D028913896E
S1131460E881F9810084F185E02D0995BC018A8920
S11314709B89F801DF91CF911F910F9109940895F1
S113148008950C94691B0F931F93FC018FEF9FEF3A
S113149093838283158214829783868300E010E00D
S11314A020E83FEB0087118722873387958784875D
S11314B080E09EEE97878687918B808B8EE492E006
S11314C091838083738B628B1F910F910895CF93C7
S11314D0DF938091A3029091A4020E94041160E022
S11314E08091A3029091A4020E9495110E94FB197D
S11314F06E397F4F54F060E08091A3029091A40272
S11315000E9495110E94FB1902C06DE97FEF709350
S1131510A2026093A10260357105ACF48091A0022F
S1131520882399F11092A002E0919A02F0919B0213
S113153080819181DC01ED91FC910684F785E02D99
S1131540DF91CF91099481E08093A002E0919A0207
S1131550F0919B02808191819093950280939402F3
S1131560C0919C02D0919D02072E000C880B990B10
S11315700E94331AAB01BC01E881F9810084F18532
S1131580E02DCE01DF91CF910994DF91CF910895A1
S11315908091940290919502DC01ED91FC9100847C
S11315A0F185E02D0995039779F480919402909147
S11315B095026091060170910701DC01ED91FC91A7
S11315C00688F789E02D09940895EF92FF920F930E
S11315D01F93CF93DF9385B5887F816085BD84E0B9
S11315E090E00E94651BEC010E948005D0939D024F
S11315F0C0939C028AE090E00E94671B90939B0238
S113160080939A0284E190E00E94651BEC01609152
S11316109C0270919D020E943406E0919A02F0911E
S11316209B02D183C08384E190E00E94651BEC019E
S113163060919C0270919D020E94430AE0919A027B
S1131640F0919B02D383C28384E190E00E94651BE6
S1131650EC0120919C0230919D0242E050E06AE04E
S113166070E00E94EB09E0919A02F0919B02D5830D
S1131670C4838EE190E00E94651BEC01E0909C0223
S1131680F0909D0208E010E021E030E040E050E0FE
S113169069E070E00E94FE07E0919A02F0919B02DB
S11316A0D783C68388E190E00E94651BEC01E0913A
S11316B09A02F0919B0220919C0230919D024681F6
S11316C05781648175810E948106E0919A02F091AC
S11316D09B02D187C08788E190E00E94651BEC01E2
S11316E060919C0270919D0241EA52E00E94E605DD
S11316F0D0939902C0939802E0919A02F0919B02D0
S11317008081918190939702809396028081918148
S113171090939502809394028EE090E00E94651B62
S1131720EC016CE00E94EA13D093A602C093A502D8
S113173060E083E00E946A1E60E084E00E946A1E0A
S113174060E083E00E946A1E61E088E00E946A1EF5
S113175061E087E00E946A1E41E050E061EE7CE0B7
S113176081E00E945A1C84E190E00E94651BEC0118
S11317706091A5027091A6020E94470FD093A40223
S1131780C093A30260E0CE010E949B108091A3024B
S11317909091A4020E9431108CEA90E00E94651B93
S11317A0EC010E94AC14D093B202C093B1022CE0BD
S11317B03DE040E05EEE62E070E0CE010E94511533
S11317C09093AE028093AD0227E63AE040E05DE7F5
S11317D060E070E08091B1029091B2020E945115D4
S11317E09093AA028093A90221E83DE040E05DE7DE
S11317F060E070E08091B1029091B2020E945115B4
S11318009093A8028093A7028CEA90E00E94651B43
S1131810EC010E94AC14D093B002C093AF0228EC48
S11318203AE040E05EEE62E070E0CE010E945115C5
S11318309093AC028093AB0280919C0290919D02A4
S11318406091080170910901DC01ED91FC91048023
S1131850F581E02D0995C0E0D0E0E0919A02F09185
S11318609B02EC0FFD1F80819181DC01ED91FC91C5
S11318700484F585E02D09952296CA30D10569F7CF
S11318808091980290919902DC01ED91FC9104847D
S1131890F585E02D099560E074EF81E090E00E9409
S11318A0431D8091940290919502DC01ED91FC918D
S11318B00684F785E02DDF91CF911F910F91FF9062
S11318C0EF9009948091940290919502DC01ED913E
S11318D0FC910084F185E02D09950197D9F0809160
S11318E0940290919502DC01ED91FC910084F185C4
S11318F0E02D0995059781F48091960290919702C5
S1131900DC01ED91FC910084F185E02D099561E005
S1131910019719F460E001C061E087E00C94A61E11
S1131920CF93DF93EC018091940290919502DC01B6
S1131930ED91FC910084F185E02D0995039771F4F4
S11319408091940290919502DC01ED91FC91008CC0
S1131950F18DE02DBE01DF91CF910994DF91CF91FC
S11319600895CF93DF93C0E0D0E0E0919A02F09124
S11319709B02EC0FFD1F80819181DC01ED91FC91B4
S11319800088F189E02D09952296CA30D10569F7BE
S1131990DF91CF9108958091940290919502DC019A
S11319A0ED91FC910480F581E02D099480919402DD
S11319B090919502DC01ED91FC910680F781E02D78
S11319C00994CF93DF9383E00E94D51EEC0184E059
S11319D00E94D51EF894CD2B21F4892B79F00E9416
S11319E0D60C78946091AD027091AE028091B102F0
S11319F09091B202DF91CF910C945E160E94CB0CB1
S1131A00F0CF8091940290919502DC01ED91FC91CC
S1131A100284F385E02D09948091940290919502BB
S1131A20DC01ED91FC910084F185E02D099501978D
S1131A3031F18091940290919502DC01ED91FC9139
S1131A400084F185E02D09950297C9F080919402F4
S1131A5090919502DC01ED91FC910084F185E02DDB
S1131A600995059761F00E94010DE0919A02F091A9
S1131A709B028281938190939502809394020895AE
S1131A808091940290919502DC01ED91FC91008487
S1131A90F185E02D099582309105B1F01CF4019790
S1131AA039F0089583309105B1F00497E9F0089571
S1131AB080919C0290919D02DC01ED91FC9104883F
S1131AC0F589E02D099512C0E0919A02F0919B02EC
S1131AD08481958111C00E94010DE0919A02F091D8
S1131AE09B028681978108C00E94010DE0919A02B1
S1131AF0F0919B028281938190939502809394024A
S1131B00089580919E0290919F02892B09F46BC0E5
S1131B108091940290919502DC01ED91FC910084F6
S1131B20F185E02D099520919E0230919F02019745
S1131B3041F1253031052CF1E0919A02F0919B029C
S1131B4080819181909395028093940280919C026C
S1131B5090919D02DC01ED91FC910488F589E02DC2
S1131B6009958091940290919502DC01ED91FC918C
S1131B700684F785E02D099510929F0210929E022B
S1131B800895809194029091950223303105D1F407
S1131B90DC01ED91FC910084F185E02D0995059718
S1131BA041F08091940290919502909397028093D2
S1131BB09602809198029091990290939502809355
S1131BC09402D3CFDC01ED91FC910084F185E02DEA
S1131BD00995059729F48091960290919702B2CFC6
S1131BE00E94400DC9CF08950E94900C6091AD02EF
S1131BF07091AE028091B1029091B2020C945E1683
S1131C008091060190910701049780F48091AF02BE
S1131C109091B0020E9499156091AD027091AE024C
S1131C208091B1029091B2020C945E160895CF9304
S1131C30DF93EC016091AB027091AC028091AF0232
S1131C409091B0020E945E162397F9F480919E024F
S1131C5090919F02019690939F0280939E026091BF
S1131C60AD027091AE028091B1029091B2020E94D5
S1131C705E166091A7027091A8028091B1029091C2
S1131C80B202DF91CF910C945E16DF91CF9108954B
S1131C90CF93DF9383E00E94C51D8E3191058CF0B4
S1131CA08B3991058CF0843F21E0920784F08731D1
S1131CB022E092077CF0843195403CF5C4E0D0E00A
S1131CC00BC0C0E0D0E008C0C1E0D0E005C0C2E075
S1131CD0D0E002C0C3E0D0E08091060190910701FA
S1131CE08C179D0771F0CE010E94170E809106019A
S1131CF0909107010E94F40DD0930701C09306014F
S1131D0004C0DF91CF910C94000EDF91CF91089520
S1131D10CF93DF930E94620C0E94480E8091B1021F
S1131D209091B2020E94991580919402909195022B
S1131D30DC01ED91FC910488F589E02D09958091F1
S1131D40980290919902DC01ED91FC910288F3894B
S1131D50E02D09958091940290919502DC01ED911A
S1131D60FC910084F185E02D0995019709F46EC07A
S1131D708091940290919502DC01ED91FC91008494
S1131D80F185E02D0995059771F480919602909163
S1131D909702DC01ED91FC910084F185E02D099519
S1131DA0019709F453C0C0E0D0E0E0919A02F091A9
S1131DB09B02EC0FFD1F80819181DC01ED91FC9170
S1131DC00288F389E02D09952296CA30D10569F776
S1131DD00E94B10C8091940290919502DC01ED91E6
S1131DE0FC910084F185E02D09950297D1F0809152
S1131DF0940290919502DC01ED91FC910084F185AF
S1131E00E02D0995049769F08091940290919502D0
S1131E10DC01ED91FC910084F185E02D0995039797
S1131E20A9F4C2E0D0E0E0919A02F0919B02EC0F99
S1131E30FD1F80819181DC01ED91FC910684F78581
S1131E40E02D09952296CA30D10569F7DF91CF912B
S1131E500895FB018081883261F028F4803149F0D3
S1131E60823229F406C08B3321F0823411F080E0F1
S1131E70089581E00895FC017783668314821582B6
S1131E80108289E0818381E0828383830895CF93E4
S1131E90DF93EC010E943B0F1B8A1A8ADF91CF91DA
S1131EA00895CF93DF93EB0167E0CE010E94941471
S1131EB091E02F81281390E0892FDF91CF9108952D
S1131EC0EF92FF920F931F93CF93DF938C017B01CB
S1131ED0D42FFC01868197810E94DE13C0E041E08B
S1131EE0B701F801868197810E940D14882359F067
S1131EF0DC1306C0B701C8010E94510F811104C050
S1131F00CF5FDC1760F780E0DF91CF911F910F91D5
S1131F10FF90EF900895EF92FF920F931F93CF934A
S1131F20DF938C01EB017A01FC01868197810E9489
S1131F30CE12882311F1BE01F801868197810E9497
S1131F40BB1340E06EEBF801868197810E946B130E
S1131F50E701F9E0EF0EF11CF801868197810E94F8
S1131F609F138993CE15DF05B9F7F8018681978110
S1131F700E94CE1291E0813009F090E0892FDF9128
S1131F80CF911F910F91FF90EF900895CF93DF931E
S1131F90EA010E948B0F882339F068E0CE010E9489
S1131FA0941491E02885281390E0892FDF91CF9134
S1131FB008950F931F93CF93DF93EC018B018E81D0
S1131FC09F810E94CE12B8018E819F810E94BB1313
S1131FD040E064EB8E819F810E946B138E819F8110
S1131FE00E944013182F8E819F810E94CE1281E09F
S1131FF0111180E0DF91CF911F910F910895CF933C
S1132000DF93CDB7DEB729970FB6F894DEBF0FBEC6
S1132010CDBFFB0120812031D1F0AE014F5F5F4F76
S11320200E94C60F882389F08D818F3361F020F4DC
S11320308F3159F489E00CC08F3519F08F3739F09E
S113204004C08BE005C08AE003C080E001C08CE0DE
S113205029960FB6F894DEBF0FBECDBFDF91CF91A6
S11320600895FF920F931F93CF93DF93CDB7DEB7FD
S113207028970FB6F894DEBF0FBECDBF8C01FC01CC
S1132080868197810E94DE13F8011482158241E053
S1132090BE016F5F7F4FF801868197810E940D1406
S11320A08823E9F1BE016F5F7F4FC8010E94510F81
S11320B0882369F3F8018081811108C0BE016F5F34
S11320C07F4FC8010E94D90F811125C0F801F1800A
S11320D0BE016F5F7F4FC8010E94FF0F8F1518F478
S11320E0F801818106C0BE016F5F7F4FC8010E9465
S11320F0FF0FF801818384818F5F8483BE016F5F4A
S11321007F4FC8010E94290F882309F2F8018581B5
S11321108F5F8583BCCF81E0F8018083D7CF289679
S11321200FB6F894DEBF0FBECDBFDF91CF911F91E4
S11321300F91FF900895FC0162830895FC0186814C
S113214097810E94401391E0813009F090E0892F3B
S113215008958F929F92AF92BF92CF92DF92EF92A7
S1132160FF920F931F93CF93DF93EC016950633079
S113217048F4E62FF0E0EE0FFF1FE059FD4F008119
S1132180118102C00EEE12E08B818823F1F0888168
S113219081111BC00E94121D4B015C016801110FCB
S11321A0EE08FF08CE010E949E10811120C00E94FB
S11321B0121DDC01CB018C199D09AE09BF098815DC
S11321C09905AA05BB0570F312C0B801110F880B5D
S11321D0990BDF91CF911F910F91FF90EF90DF90BA
S11321E0CF90BF90AF909F908F900C94431DDF9140
S11321F0CF911F910F91FF90EF90DF90CF90BF9000
S1132200AF909F908F900895CF93DF93EC018E81D0
S11322109F810E94CE128E819F810E94DA13488191
S113222064E48E819F810E946B138A81882331F03C
S11322306981CE01DF91CF910C94A910DF91CF91E8
S11322400895FA01218130E0C901982F8827990F58
S1132250990F990F208148E0249F90011124282B85
S1132260392BDB018C918031C1F4678170E0868168
S1132270AB01481B5109CA019695982F8827979559
S113228087950E947D2060517109207F53E0220FC1
S1132290331F5A95E1F7260F371FC9010895EF92AE
S11322A0FF920F931F93CF93DF93CDB7DEB7299798
S11322B00FB6F894DEBF0FBECDBF8C017B01AE011B
S11322C04F5F5F4F0E94C60F882341F0AE014F5FFE
S11322D05F4FB701C8010E94211102C080E894EE4B
S11322E029960FB6F894DEBF0FBECDBFDF91CF9114
S11322F01F910F91FF90EF9008950E944F11813824
S113230024EE92076CF0BC01990F880B990B0E9484
S1132310331A20E030E040E05CE30E94E81A0895BC
S113232060E070E08EEF92EC08950F931F93CF93CB
S1132330DF93CDB7DEB728970FB6F894DEBF0FBE94
S1132340CDBF8C01462FBE016F5F7F4F0E94600F8F
S1132350882339F0BE016F5F7F4FC8010E947D1151
S113236004C060E070E08EEF92EC28960FB6F8940B
S1132370DEBF0FBECDBFDF91CF911F910F910895A6
S113238080E090E0089508950F93FC011382128277
S11323908AE792E091838083648340872187028760
S11323A088E083870F9108951F93CF93DF93EC0107
S11323B0162F6C8181E293E00E94F3186B85612BE8
S11323C081E293E00E94AA1881E293E0DF91CF9129
S11323D01F910C9410190F931F93CF938C01C62F48
S11323E064600E94D41181E090E00E947F1D6C2FF4
S11323F06B7FC8010E94D41182E390E0CF911F91BA
S11324000F910C947F1D1F93CF93DF93EC01162F34
S11324100E94D411612FCE01DF91CF911F910C94B2
S1132420EB110F931F93CF93DF938C01C62FD42FFF
S1132430607F642B0E94031280E1C89FB0011124C5
S11324406D2BC801DF91CF911F910F910C94031252
S113245040E00C94111261E00E94281280ED97E094
S11324600C947F1D62E00E94281280ED97E00C948A
S11324707F1DCF93DF93CDB7DEB728970FB6F894BF
S1132480DEBF0FBECDBF9C0188E0EFE0F1E0DE01CE
S1132490119601900D928A95E1F7F90181858417CF
S11324A010F44FEF480FFE013196E40FF11DE40FD5
S11324B0F11D9081690F6068C90128960FB6F894E0
S11324C0DEBF0FBECDBFDF91CF910C942812FC016B
S11324D06681262F246026836C600C94281241E0C8
S11324E00E94111281E090E00895CF93DF93EC01F4
S11324F081E293E00E94E9181D828985823010F000
S113250098E09D839A85992329F0813019F48D816F
S113251084608D8362E370E080E090E00E94431D5C
S11325206B85CE010E94D41168EE73E080E090E0E8
S11325300E94431D60E3CE010E94031284E991E1ED
S11325400E947F1D60E3CE010E94031284E991E1A1
S11325500E947F1D60E3CE010E94031286E990E091
S11325600E947F1D60E2CE010E9403126D816062B1
S1132570CE010E94281284E08E83CE010E9467124D
S1132580CE010E942B1282E08F8366E0CE010E946E
S11325902812CE01DF91CF910C943212FF920F9347
S11325A01F93CF93DF93FC01F080C181D281F89413
S11325B089810F2D00958023898378941DE711501C
S11325C029F182E090E00E947F1D88818F21B9F378
S11325D0F8948A8180238A8389818F2989837894D6
S11325E080EE91E00E947F1DF8948981082309837D
S11325F086E490E00E947F1D8881F82211E009F0B2
S113260010E078948AE991E00E947F1D812FDF9188
S1132610CF911F910F91FF9008951F93CF93DF9354
S1132620FC011081C181D281812F809560FF12C08D
S1132630F8949A8189238A838981812B89838AE00A
S113264090E00E947F1D8A81182B1A83789487E377
S113265090E011C0F8949A8189238A838981812B1F
S1132660898381E490E00E947F1D8A81182B1A835C
S1132670789485E090E0DF91CF911F910C947F1DB9
S11326800F931F93CF93DF93FC010081C181D2810B
S1132690F8948981802B89838A81102F1095812356
S11326A08A8383E090E00E947F1D89811823198327
S11326B08AE090E00E947F1DC881789485E390E0D1
S11326C00E947F1DC02381E009F480E0DF91CF9157
S11326D01F910F910895DF92EF92FF920F931F9332
S11326E0CF93DF93EC01D62EE42E08E010E0FF2414
S11326F0F39461E08D2D8F2109F460E0CE010E94F6
S11327000D13FF0C01501109A1F7E11010C0F8944A
S1132710E981FA8191818881809589238183E98186
S1132720FA81928188818095892382837894DF91CC
S1132730CF911F910F91FF90EF90DF900895EF924A
S1132740FF920F931F93CF93DF937C0108E010E077
S1132750C0E0D1E0C7010E9440138111CD2BDD0FF1
S113276001501109B9F78C2FDF91CF911F910F916F
S1132770FF90EF900895EF92FF920F931F93CF93E2
S1132780DF938C017B0140E065E50E946B13E70158
S113279088E0E80EF11C699140E0C8010E946B13C7
S11327A0CE15DF05C1F7DF91CF911F910F91FF90F7
S11327B0EF90089540E06CEC0C946B13FC011386CD
S11327C015861486DC011B9633961E92AE17BF073E
S11327D0E1F708951F93CF93DF93EC01162F60E088
S11327E0812F0E946A1E612F70E0FB01E456FF4FA7
S11327F0E491E883FB01E055FF4FE491F0E0EE0F34
S1132800FF1FEC53FF4F859194919A838983CE01E6
S1132810DF91CF911F910C94DE13BF92CF92DF9280
S1132820EF92FF920F931F93CF93DF93EC016B0111
S1132830142F8D85811105C0CE010E94CE12811105
S113284005C01B861D861C8680E064C040E0112301
S113285011F060EF01C06CEECE010E946B1301E039
S1132860E12CB12C11E0CE010E944013F82ECE01D0
S11328700E94401391E0F91203C08130B1F434C0D6
S11328802E2D30E0F8121BC08B85181738F4FE018A
S1132890E20FF31F8381802341F402C0181729F04B
S11328A0F12C193058F41C8709C0FE01EE0DF11DFE
S11328B08381802B8383FF24F39409C0B12EFE010E
S11328C0E20FF31F9381802F8095892383836F2DDB
S11328D0CE010E940D131F5F000F11F4E39401E079
S11328E087E08E1508F0BFCF113408F4AACFBB8659
S11328F0B11002C081E08D878B81882309F4A1CFB8
S1132900DE011396F6012B968D918193CA17DB078E
S1132910D9F781E0DF91CF911F910F91FF90EF9054
S1132920DF90CF90BF900895DC0180E0615098F073
S11329302D91982F9227E92FEF70F0E0E859FF4F7F
S1132940249192959F70E92FF0E0E858FF4FE491AD
S1132950822F8E27EBCF0895CF92DF92EF92FF92D2
S1132960CF93DF93EC010E94121D7E012CE8E20E4E
S1132970F11CFE01B8966E019E01245C3F4FD70105
S11329801D927D0111921192D6016D937D938D93C9
S11329909D936D01AF01425B5F4FDA011D921C9262
S11329A0E217F30761F7C655DF4F19821882DF91EA
S11329B0CF91FF90EF90DF90CF900895FC01E65502
S11329C0FF4F208131812A3031056CF4E258F1093E
S11329D020E030E081919191892B41F02F5F3F4FAE
S11329E02A303105B9F78FEF9FEF0895C901089593
S11329F04F925F926F927F92AF92BF92CF92DF928B
S1132A00EF92FF920F931F93CF93DF93EC012A0170
S1132A103B0169010E94DE147C0197FD31C0C114A1
S1132A20D10471F15C01AA0CBB1CAA0CBB1CAC0E3A
S1132A30BD1EF50144AE55AE66AE77AEF701EE0F9E
S1132A40FF1FEC0FFD1FD1A6C0A6EC59FF4F118349
S1132A500083FE01EE0DFF1DE457FF4F81E08083EC
S1132A600E94121DF5016083718382839383C6558E
S1132A70DF4F88819981019699838883C70102C0B9
S1132A808FEF9FEFDF91CF911F910F91FF90EF9008
S1132A90DF90CF90BF90AF907F906F905F904F90FA
S1132AA008950F931F9300E010E00E94F8141F9103
S1132AB00F910895CF93DF936A307105BCF5EC0153
S1132AC0C655DF4F288139812115310579F1DB01A4
S1132AD0AA0FBB1FA80FB91F98964D915C919997A7
S1132AE0452B21F199961C921E929897FC01E60FB2
S1132AF0F71FE457FF4F1082FD01EA56FF4F118282
S1132B001082615F7F4F660F771F660F771FFC018E
S1132B10E60FF71F1082118212821382A858BF4F4A
S1132B201D921C922150310939832883DF91CF9162
S1132B3008952F923F924F925F926F927F928F925D
S1132B409F92AF92BF92CF92DF92EF92FF920F9338
S1132B501F93CF93DF9300D000D000D0CDB7DEB762
S1132B609C838B830E94121D6B017C01EB81FC8191
S1132B70EC59FF4F0B811C81980124573F4FC8012A
S1132B8088589F4F9A8389831E830D83222423941C
S1132B90312C13AA12AACF01CC97DC018D919C9100
S1132BA0892BF1F1AD81BE818D909D90AD90BC904B
S1132BB01397DC964D915D916D917C91DF97260181
S1132BC03701481859086A087B08441655066606F2
S1132BD0770630F1480D591D6A1D7B1D4D935D9399
S1132BE06D937C931397D9018C918823C9F040810C
S1132BF051814115510519F433AA22AA11C08489BF
S1132C0095898417950764F433AA22AA0196958BB3
S1132C10848B8417950724F082E090E093AB82AB19
S1132C203296AD81BE811496BE83AD832F5F3F4F34
S1132C3089819A81E817F90709F0ABCFE12CF12CCF
S1132C40F801EA56FF4F808191818130910571F03E
S1132C50029791F4D8019896ED91FC919997099572
S1132C60B7018B819C810E945A1506C0D8019896A1
S1132C70ED91FC9199970995BFEFEB1AFB0A0E5F52
S1132C801F4F8AE0E816F104D9F626960FB6F89499
S1132C90DEBF0FBECDBFDF91CF911F910F91FF908B
S1132CA0EF90DF90CF90BF90AF909F908F907F90E8
S1132CB06F905F904F903F902F9008950F931F93C4
S1132CC0CF93DF936A30710574F4EB018C010E9499
S1132CD0121DCC0FDD1FCC0FDD1FC00FD11F688369
S1132CE079838A839B83DF91CF911F910F910895FC
S1132CF01092200381E080931E0310921D0361E073
S1132D0082E10E94A61E61E083E10E94A61EE9EB17
S1132D10F0E080818E7F808380818D7F808388E452
S1132D208093B80085E48093BC0008950F934132EA
S1132D3008F04AC0909120039111FCCF32E0309307
S1132D40200300931E033FEF3093B3021092F80266
S1132D504093F702562FA9EFB2E0FB013E2F351B3B
S1132D60341718F431913D93F9CF10921F03309129
S1132D701F03880F832B80931F0380911D038130D1
S1132D8061F410921D0380911F038093BB00809116
S1132D90BC0083FDF8CF85EC01C085EE8093BC00B8
S1132DA0222321F0809120038230D1F38091B30259
S1132DB08F3F79F08091B302803241F08091B30269
S1132DC0803331F094E005C091E003C092E001C08B
S1132DD093E0892F0F9108954091D502262F30E07A
S1132DE0240F311D21323105DCF4209120032430DD
S1132DF0C9F4FC0180E090E0861758F43091D502C4
S1132E002191DC01A952BD4FA30FB11D2C93019652
S1132E10F3CF8091D502680F6093D50280E00895C6
S1132E2081E0089582E0089585ED8093BC0080914F
S1132E30BC0084FDFCCF10922003089585EC8093A0
S1132E40BC001092200308951F920F920FB60F92A8
S1132E5011242F933F934F935F936F937F938F939B
S1132E609F93AF93BF93EF93FF938091B900887FB3
S1132E70803609F49EC078F5883209F45DC090F478
S1132E80803109F456C038F4882309F4F5C0883039
S1132E9009F44FC0F5C0883109F44EC0803209F4FA
S1132EA05FC0EEC0803409F46AC058F4803309F47A
S1132EB057C0883309F0E4C08093B3020E941E1700
S1132EC0DFC0803509F44FC0883509F45DC088340B
S1132ED009F0D6C0D3C0883909F4C4C0A8F488372F
S1132EE009F467C038F4883609F463C0803709F4FC
S1132EF060C0C6C0883809F4B5C0803909F45FC021
S1132F00803809F0BDC05BC0803B09F483C038F44D
S1132F10803A09F466C0883A09F47CC0B1C0803CA8
S1132F2009F4A4C0883C09F4A1C0883B09F487C013
S1132F30A7C080911F0310C09091F8028091F702FE
S1132F40981770F5E091F80281E08E0F8093F802F3
S1132F50F0E0E750FD4F80818093BB0085EC83C097
S1132F608093B3028BC0E091F80281E08E0F8093CE
S1132F70F8028091BB00F0E0E750FD4F8083909110
S1132F80F8028091F7026BC0E091F80281E08E0FA5
S1132F908093F8028091BB00F0E0E750FD4F8083FE
S1132FA080911E0381116AC081E080931D0384EA2D
S1132FB05EC083E0809320031092B402CFCF80914F
S1132FC0B402803208F04EC0E091B40281E08E0F6A
S1132FD08093B4028091BB00F0E0EB54FD4F8083FA
S1132FE0BDCF0E941E178091B402803230F4E0916C
S1132FF0B402F0E0EB54FD4F10826091B40270E033
S1133000E0911903F0911A0385EB92E0099510926F
S1133010B40236C084E0809320031092D60210924A
S1133020D502E0911B03F0911C0309958091D50210
S1133030811105C081E08093D5021092D702E091FE
S1133040D60281E08E0F8093D602F0E0E952FD4F64
S113305080818093BB009091D6028091D50298170D
S113306008F47CCF85E88093BC000AC085EC80938B
S1133070BC001092200304C01092B3020E941417E3
S1133080FF91EF91BF91AF919F918F917F916F913C
S11330905F914F913F912F910F900FBE0F901F9012
S11330A018958091510390E020915203821B91095D
S11330B008959091520380915103981750F4E92F89
S11330C0F0E0ED5AFC4F208130E09F5F9093520373
S11330D002C02FEF3FEFC9010895E09152038091A0
S11330E05103E81730F4F0E0ED5AFC4F808190E092
S11330F008958FEF9FEF08950895CF92DF92EF9296
S1133100FF920F931F93CF93DF937C01CB018A012E
S113311020912D03222389F0EB016B01C40ED51EEF
S1133120CC15DD0569F06991D701ED91FC91019011
S1133130F081E02DC7010995F3CF642F0E94EC16AE
S1133140C801DF91CF911F910F91FF90EF90DF9015
S1133150CF900895CF93DF931F92CDB7DEB76983E5
S113316020912D032223D1F020912E03203240F010
S113317021E030E0FC013383228380E090E015C03D
S113318080912F03E82FF0E0E05DFC4F998190835C
S11331908F5F80932F0380932E0305C061E0CE01DF
S11331A001960E94EC1681E090E00F90DF91CF91A0
S11331B00895FC011382128288EE93E0A0E0B0E04F
S11331C084839583A683B78386E892E09183808382
S11331D00895109252031092510310922F031092EB
S11331E02E030C94781681E080932D036093500392
S11331F010922F0310922E0308950F93062F21E0AF
S113320040912E0360E373E0809150030E94961670
S113321010922F0310922E0310922D030F910895F4
S113322061E00C94FD1881E293E00C94D918505895
S1133230BB27AA270E942F190C94A91A0E949B1A33
S113324038F00E94A21A20F039F49F3F19F426F4B2
S11332500C94981A0EF4E095E7FB0C94921AE92F5B
S11332600E94BA1A58F3BA176207730784079507BE
S113327020F079F4A6F50C94DC1A0EF4E0950B2EEC
S1133280BA2FA02D0B01B90190010C01CA01A001B4
S11332901124FF27591B99F0593F50F4503E68F10F
S11332A01A16F040A22F232F342F4427585FF3CF50
S11332B0469537952795A795F0405395C9F77EF421
S11332C01F16BA0B620B730B840BBAF09150A1F06A
S11332D0FF0FBB1F661F771F881FC2F70EC0BA0FF0
S11332E0621F731F841F48F4879577956795B79578
S11332F0F7959E3F08F0B0CF9395880F08F0992773
S1133300EE0F9795879508950E946E1A08F481E050
S113331008950E949D190C94A91A0E94A21A58F0AB
S11333200E949B1A40F029F45F3F29F00C94921AF2
S113333051110C94DD1A0C94981A0E94BA1A68F36D
S11333409923B1F3552391F3951B550BBB27AA275A
S113335062177307840738F09F5F5F4F220F331F94
S1133360441FAA1FA9F335D00E2E3AF0E0E832D05C
S113337091505040E695001CCAF72BD0FE2F29D05F
S1133380660F771F881FBB1F261737074807AB0731
S1133390B0E809F0BB0B802DBF01FF2793585F4FA6
S11333A03AF09E3F510578F00C94921A0C94DD1A71
S11333B05F3FE4F3983ED4F3869577956795B79588
S11333C0F7959F5FC9F7880F911D9695879597F993
S11333D00895E1E0660F771F881FBB1F621773070C
S11333E08407BA0720F0621B730B840BBA0BEE1F21
S11333F088F7E09508950E94021A6894B1110C941C
S1133400DD1A08950E94C21A88F09F5798F0B92FC8
S11334109927B751B0F0E1F0660F771F881F991F05
S11334201AF0BA95C9F714C0B13091F00E94DC1AB1
S1133430B1E008950C94DC1A672F782F8827B85FC1
S113344039F0B93FCCF3869577956795B395D9F75D
S11334503EF490958095709561957F4F8F4F9F4F67
S11334600895E89409C097FB3EF490958095709573
S113347061957F4F8F4F9F4F9923A9F0F92F96E9BC
S1133480BB279395F695879577956795B795F11131
S1133490F8CFFAF4BB0F11F460FF1BC06F5F7F4FCE
S11334A08F4F9F4F16C0882311F096E911C07723E0
S11334B021F09EE8872F762F05C0662371F096E8E9
S11334C0862F70E060E02AF09A95660F771F881FB8
S11334D0DAF7880F9695879597F90895990F00085C
S11334E0550FAA0BE0E8FEEF16161706E807F907D2
S11334F0C0F012161306E407F50798F0621B730B6D
S1133500840B950B39F40A2661F0232B242B252BED
S113351021F408950A2609F4A140A6958FEF811D90
S1133520811D089597F99F6780E870E060E0089531
S11335309FEF80EC089500240A94161617061806C7
S11335400906089500240A941216130614060506A3
S11335500895092E0394000C11F4882352F0BB0F34
S113356040F4BF2B11F460FF04C06F5F7F4F8F4F97
S11335709F4F089557FD9058440F551F59F05F3FD2
S113358071F04795880F97FB991F61F09F3F79F081
S113359087950895121613061406551FF2CF469503
S11335A0F1DF08C0161617061806991FF1CF869585
S11335B07105610508940895E894BB276627772769
S11335C0CB0197F908950E946E1A08F48FEF0895BD
S11335D00E94FB1A0C94A91A0E949B1A38F00E94AC
S11335E0A21A20F0952311F00C94921A0C94981AB4
S11335F011240C94DD1A0E94BA1A70F3959FC1F33A
S1133600950F50E0551F629FF001729FBB27F00D8C
S1133610B11D639FAA27F00DB11DAA1F649F6627E1
S1133620B00DA11D661F829F2227B00DA11D621F30
S1133630739FB00DA11D621F839FA00D611D221FEA
S1133640749F3327A00D611D231F849F600D211DCE
S1133650822F762F6A2F11249F5750409AF0F1F051
S113366088234AF0EE0FFF1FBB1F661F771F881FBA
S113367091505040A9F79E3F510580F00C94921A46
S11336800C94DD1A5F3FE4F3983ED4F38695779566
S11336906795B795F795E7959F5FC1F7FE2B880F60
S11336A0911D9695879597F9089508950E948A1D0E
S11336B00E94551B0E94E50AC0E0D0E00E94880EDB
S11336C02097E1F30E940000F9CF0C94CD200C94D4
S11336D0CD200C946521CF92DF92EF92FF920F934D
S11336E01F93CF93DF936C017A018B01C0E0D0E08C
S11336F0CE15DF0581F0D8016D918D01D601ED91D4
S1133700FC910190F081E02DC6010995892B11F0FF
S11337102196EECF7E01C701DF91CF911F910F91CA
S1133720FF90EF90DF90CF9008956115710579F0C7
S1133730FB0101900020E9F73197AF01461B570BBD
S1133740DC01ED91FC910280F381E02D099480E08D
S113375090E00895DB0114964D915C9115976D915D
S11337607C91DC01ED91FC910280F381E02D0994C0
S11337700C94951BDC01ED91FC910190F081E02DFE
S113378009948F929F92AF92BF92EF92FF920F9300
S11337901F93CF93DF93CDB7DEB7A1970FB6F894FD
S11337A0DEBF0FBECDBF7C01FA01CB0119A22230CE
S11337B008F42AE08E010F5D1F4F822E912CA12C5C
S11337C0B12CBF01A50194010E949120F901CA0105
S11337D0015011096A3010F4605D01C0695CD801C0
S11337E06C93232B242B252B61F7B801C7010E946E
S11337F0951BA1960FB6F894DEBF0FBECDBFDF9127
S1133800CF911F910F91FF90EF90BF90AF909F9039
S11338108F900895CF92DF92EF92FF920F931F93B0
S1133820CF93DF932115310581F4DC01ED91FC91F7
S11338300190F081E02D642FDF91CF911F910F91C2
S1133840FF90EF90DF90CF9009942A30310501F575
S113385077FF1DC06A017B01EC016DE20E94BA1B77
S11338608C0144275527BA014C195D096E097F095B
S11338702AE0CE010E94C11B800F911FDF91CF91DE
S11338801F910F91FF90EF90DF90CF9008952AE061
S1133890DF91CF911F910F91FF90EF90DF90CF9028
S11338A00C94C11B9A01AB01770F660B770B0C9438
S11338B00A1C08958230E8F4E82FF0E0EE0FFF1FB1
S11338C0E65FFE4F71836083813041F0809169002F
S11338D08C7F482B40936900E89A08958091690091
S11338E0837F440F551F440F551F482B4093690095
S11338F0E99A08951F920F920FB60F9211242F93F5
S11339003F934F935F936F937F938F939F93AF9363
S1133910BF93EF93FF93E0910A01F0910B01099596
S1133920FF91EF91BF91AF919F918F917F916F9193
S11339305F914F913F912F910F900FBE0F901F9069
S113394018951F920F920FB60F9211242F933F9345
S11339504F935F936F937F938F939F93AF93BF9393
S1133960EF93FF93E0910C01F0910D010995FF9104
S1133970EF91BF91AF919F918F917F916F915F91E3
S11339804F913F912F910F900FBE0F901F9018955C
S11339901F920F920FB60F9211242F933F938F9380
S11339A09F93AF93BF938091740390917503A091FB
S11339B07603B09177033091730323E0230F2D37FF
S11339C020F40196A11DB11D05C026E8230F02961F
S11339D0A11DB11D20937303809374039093750309
S11339E0A0937603B0937703809178039091790341
S11339F0A0917A03B0917B030196A11DB11D809320
S1133A00780390937903A0937A03B0937B03BF91D7
S1133A10AF919F918F913F912F910F900FBE0F9077
S1133A201F9018952FB7F8946091740370917503E3
S1133A3080917603909177032FBF08953FB7F89450
S1133A408091780390917903A0917A03B0917B03DC
S1133A5026B5A89B05C02F3F19F00196A11DB11DE5
S1133A603FBFBA2FA92F982F8827820F911DA11D20
S1133A70B11DBC01CD0142E0660F771F881F991F5D
S1133A804A95D1F708958F929F92AF92BF92CF92A9
S1133A90DF92EF92FF926B017C010E941E1D4B018D
S1133AA05C01C114D104E104F10401F10E947C2001
S1133AB00E941E1DDC01CB0188199909AA09BB09C2
S1133AC0883E9340A105B10560F321E0C21AD108F4
S1133AD0E108F10888EE880E83E0981EA11CB11C51
S1133AE0C114D104E104F10419F7DBCFFF90EF9086
S1133AF0DF90CF90BF90AF909F908F9008958230C9
S1133B00910538F0880F991F880F991F0597019721
S1133B10F1F70895789484B5826084BD84B581609A
S1133B2084BD85B5826085BD85B5816085BDEEE6C1
S1133B30F0E0808181608083E1E8F0E010828081A0
S1133B4082608083808181608083E0E8F0E080810E
S1133B5081608083E1EBF0E0808184608083E0EB2E
S1133B60F0E0808181608083EAE7F0E08081846016
S1133B708083808182608083808181608083808172
S1133B80806880831092C10008958E3008F08E50B2
S1133B9020910E0190E4299F900111248770822BBB
S1133BA080937C0080917A00806480937A00809175
S1133BB07A0086FDFCCF809178002091790090E016
S1133BC0922B08951F93CF93DF93182FEB0161E09D
S1133BD00E946A1E209711F460E004C0CF3FD10513
S1133BE039F461E0812FDF91CF911F910C94A61ECF
S1133BF0E12FF0E0E857FF4FE491E330F9F048F4A7
S1133C00E130B9F0E230A1F584B5806284BDC8BD6D
S1133C1034C0E730E9F0E83019F1E43049F5809137
S1133C208000806280938000D0938B00C0938A00D0
S1133C3024C084B5806884BDC7BD1FC08091800046
S1133C40806880938000D0938900C093880015C059
S1133C508091B00080688093B000C093B3000DC021
S1133C608091B00080628093B000C093B40005C01E
S1133C70C038D1050CF0B5CFAFCFDF91CF911F91F4
S1133C800895833081F028F4813099F08230A1F0D6
S1133C9008958730A9F08830B9F08430D1F4809148
S1133CA080008F7D03C0809180008F778093800097
S1133CB0089584B58F7702C084B58F7D84BD08953F
S1133CC08091B0008F7703C08091B0008F7D809386
S1133CD0B0000895CF93DF9390E0FC01E456FF4FCA
S1133CE02491FC01E055FF4F8491882361F190E019
S1133CF0880F991FFC01E852FF4FC591D491FC0134
S1133D00E253FF4FA591B491611109C09FB7F89494
S1133D108881209582238883EC912E230BC0623006
S1133D2061F49FB7F8948881322F30958323888378
S1133D30EC912E2B2C939FBF06C08FB7F894E8818B
S1133D402E2B28838FBFDF91CF9108951F93CF939C
S1133D50DF93282F30E0F901E857FF4F8491F901F0
S1133D60E456FF4FD491F901E055FF4FC491CC23A1
S1133D70C1F0162F81110E94411EEC2FF0E0EE0FCE
S1133D80FF1FE253FF4FA591B4919FB7F89411110F
S1133D9004C08C91D095D82302C0EC91DE2BDC9327
S1133DA09FBFDF91CF911F910895CF93DF93282F69
S1133DB030E0F901E857FF4F8491F901E456FF4FD1
S1133DC0D491F901E055FF4FC491CC2391F08111B6
S1133DD00E94411EEC2FF0E0EE0FFF1FEC53FF4F4B
S1133DE0A591B491EC91ED2381E090E021F480E081
S1133DF002C080E090E0DF91CF9108950895FC0126
S1133E00808191810C946521CF93DF93EC018881AB
S1133E109981009711F00E946521198218821D82F0
S1133E201C821B821A82DF91CF9108950F931F93F6
S1133E30CF93DF93EC018B016F5F7F4F8881998172
S1133E400E94EE21009731F0998388831B830A83B3
S1133E5081E001C080E0DF91CF911F910F9108951F
S1133E60CF93DF93EC0188819981892B29F08A8192
S1133E709B818617970760F4CE010E94161F882342
S1133E8041F08C819D81892B19F4E881F98110829C
S1133E9081E0DF91CF910895EF92FF920F931F93EA
S1133EA0CF93DF93EC017B018A01BA010E94301F9A
S1133EB0811104C0CE010E94041F07C01D830C831E
S1133EC0B701888199810E94BD22CE01DF91CF91F3
S1133ED01F910F91FF90EF900895FC0111821082C1
S1133EE013821282158214826115710551F0FB014F
S1133EF001900020E9F73197AF01461B570B0C9452
S1133F004C1F08950F931F93CF93DF938C01EB0104
S1133F10FC01808191810097D1F0688179816115DC
S1133F20710599F02EEF3EE1232B79F04281538104
S1133F302C813D814217530740F00E94BD228C81A1
S1133F409D81F8019583848313C00E946521888133
S1133F509981F801918380838A819B8193838283F1
S1133F608C819D8195838483198218821B821A8295
S1133F701D821C82DF91CF911F910F910895CF93E1
S1133F80DF93EC01FB018617970761F06081718173
S1133F906115710529F0448155810E944C1F02C0AE
S1133FA00E94041FCE01DF91CF910895CF93DF9338
S1133FB0EC018617970711F00E94821FCE01DF9152
S1133FC0CF910895CF93DF93EC016115710559F0FA
S1133FD0FB0101900020E9F73197AF01461B570B15
S1133FE00E944C1F02C00E94041FCE01DF91CF919A
S1133FF008950F931F93CF93DF93CDB7DEB76297E6
S11340000FB6F894DEBF0FBECDBF8C01CB01F80113
S113401011821082138212821582148250E0BE0132
S11340206F5F7F4F0E94C422BE016F5F7F4FC80144
S11340300E94E21F62960FB6F894DEBF0FBECDBF9A
S1134040DF91CF911F910F910895EF92FF920F93FB
S11340501F93CF93DF936115710511F480E01CC0A9
S113406041155105C1F07B01EC018C819D818A01D0
S1134070080F191FB801CE010E94301F882371F365
S1134080288139818C819D81B701820F931F0E9401
S1134090BD221D830C8381E0DF91CF911F910F918D
S11340A0FF90EF900895FB014481558160817181F7
S11340B00C9425206115710551F0FB01019000203D
S11340C0E9F73197AF01461B570B0C94252080E08C
S11340D00895CF93DF93EC01FB0144815581608106
S11340E071810E942520811103C0CE010E94041F0A
S11340F0CE01DF91CF910895089597FB072E16F412
S1134100009407D077FD09D00E94B32007FC05D0A6
S11341103EF4909581959F4F0895709561957F4FDA
S11341200895A1E21A2EAA1BBB1BFD010DC0AA1FF4
S1134130BB1FEE1FFF1FA217B307E407F50720F00C
S1134140A21BB30BE40BF50B661F771F881F991F87
S11341501A9469F760957095809590959B01AC01D0
S1134160BD01CF010895AA1BBB1B51E107C0AA1FC3
S1134170BB1FA617B70710F0A61BB70B881F991F04
S11341805A95A9F780959095BC01CD010895EE0F3D
S1134190FF1F0590F491E02D09940F931F93CF9383
S11341A0DF938230910510F482E090E0E0917E0389
S11341B0F0917F0320E030E0A0E0B0E0309719F107
S11341C0408151810281138148175907C8F084172F
S11341D0950769F4109731F012960C931297139681
S11341E01C9327C000937E0310937F0322C02115E4
S11341F0310519F04217530718F49A01BD01EF0174
S1134200DF01F801DBCF21153105F9F0281B390B4B
S11342102430310580F48A819B816115710521F078
S1134220FB019383828304C090937F0380937E0376
S1134230FE01329644C0FE01E20FF31F8193919375
S113424022503109398328833AC020917C0330916C
S11342507D03232B41F4209102013091030130931B
S11342607D0320937C0320910001309101012115ED
S1134270310541F42DB73EB7409104015091050139
S1134280241B350BE0917C03F0917D03E217F307C7
S1134290A0F42E1B3F0B2817390778F0AC014E5FB2
S11342A05F4F2417350748F04E0F5F1F50937D036F
S11342B040937C038193919302C0E0E0F0E0CF014E
S11342C0DF91CF911F910F910895CF93DF930097C2
S11342D009F481C0FC01329713821282A0917E03FB
S11342E0B0917F03109781F420813181820F931F55
S11342F020917C0330917D032817390751F5F09301
S11343007D03E0937C0367C0ED0120E030E0CE172D
S1134310DF0740F44A815B819E0141155105F1F0AC
S1134320EA01F5CFD383C28340815181840F951F65
S1134330C817D90759F488819981840F951F02966B
S1134340918380838A819B819383828321153105A4
S113435029F4F0937F03E0937E033DC0E901FB83DE
S1134360EA8349915991C40FD51FEC17FD0761F4F5
S113437080819181840F951F0296E9019983888336
S1134380828193819B838A83E0E0F0E012968D9191
S11343909C911397009719F0FD01DC01F7CF8D91E3
S11343A09C9111979D012E5F3F4F820F931F209187
S11343B07C0330917D032817390769F4309729F479
S11343C010927F0310927E0302C013821282B09374
S11343D07D03A0937C03DF91CF910895A0E0B0E02A
S11343E0E4EFF1E20C941E23EC01009721F4CB01DD
S11343F00E94CD20B4C0FC01E60FF71F9C0122509F
S11344003109E217F30708F4A8C0D9010D911C91F2
S1134410119706171707B0F00530110508F49BC073
S1134420C80104978617970708F495C0025011092C
S1134430061B170B019311936D937C93CF010E947C
S1134440652189C05B01A01AB10A4C01800E911E3E
S1134450A0917E03B0917F03612C712CE12CF12C8F
S1134460109709F446C08D919C911197A815B90530
S1134470B1F56C0142E0C40ED11CCA14DB0478F11E
S11344804C018A189B08640142E0C40ED11C1296A8
S1134490BC9012971396AC91B5E0CB16D10440F0C2
S11344A0B282A38391828082D9016D937C9309C0E7
S11344B00E5F1F4F800F911FF90191838083EB2DB5
S11344C0FA2FE114F10431F0D7011396FC93EE9323
S11344D0129741C0F0937F03E0937E033CC06816BB
S11344E0790608F43C017D0112960D90BC91A02D33
S11344F0B7CF80917C0390917D0388169906E1F4EF
S113450066167706C8F48091000190910101009726
S113451041F48DB79EB74091040150910501841B6D
S1134520950BE817F907C8F4F0937D03E0937C0337
S1134530F901718360830FC0CB010E94CD207C01FF
S1134540009759F0A801BE010E94B422CE010E9436
S11345506521C70104C0CE0102C080E090E0CDB760
S1134560DEB7EEE00C943A23FB01DC0102C00190BB
S11345700D9241505040D8F70895FB01DC010190A1
S11345800D920020E1F708954532510520F44230A0
S113459010F00C94CF22FB011082CB010895BB27AD
S11345A04A3031F4992322F4BDE2909581959F4FCE
S11345B00C94DB22BB27FB015527AA27880F991FE0
S11345C0AA1FA41710F0A41B83955051B9F7A05D3E
S11345D0AA3308F0A95DA193009779F7B111B193BB
S11345E01192CB010C94F422DC01FC01672F719130
S11345F07723E1F7329704C07C916D9370836291C5
S1134600AE17BF07C8F30895F999FECF92BD81BDD7
S1134610F89A992780B50895262FF999FECF1FBAE5
S113462092BD81BD20BD0FB6F894FA9AF99A0FBED7
S1134630019608952F923F924F925F926F927F92CC
S11346408F929F92AF92BF92CF92DF92EF92FF929E
S11346500F931F93CF93DF93CDB7DEB7CA1BDB0B4A
S11346600FB6F894DEBF0FBECDBF09942A883988EF
S113467048885F846E847D848C849B84AA84B984F6
S1134680C884DF80EE80FD800C811B81AA81B98102
S1134690CE0FD11D0FB6F894DEBF0FBECDBFED0116
S10946A00895F894FFCF19
S11346A600008003200004006802591C591C010004
S11346B600400014005400000000009C00AC00AE52
S11346C6009D00706F77657220737570706C790049
S11346D64F4646003E006D61782074656D706572C4
S11346E66174757265006578636565646564004325
S11346F6004D656D6F72792072656164004D656D5C
S11347066F727920736176656400202000743D0021
S11347166E6F6E200046616E3D004F4646200025B2
S1134726002E00553A00573A00493A0000000000AE
S11347360901ED0214014F012B029802BF02710414
S1134746030564010A010F01A501E602FD00AA01A1
S11347562E03BC04000000008605E40596059605B4
S11347668705960596058A0596059705AA05E30520
S1134776E305000000002006320621062106230672
S113478621062106260621062106210622062206E0
S11347960000000058067F067D067D0659067D0644
S11347A67D065C067D067D067D067E067E06000089
S11347B60000AF06FC06B006BB06C60604071907CA
S11347C6C906A207FE06E006FB06FB06000000007B
S11347D66208B50863086E087908D10967097C0878
S11347E6B7082309A7088D09290900000000200A33
S11347F6410A3F0A3F0A210A3F0A3F0A3F0A3F0A83
S11348063F0A240A400A400A76657220312E300097
S11348165E00BC007701000000006F126B1BC01124
S1134826C31100000000AA187D18C0117C18511885
S107483659186D1884
S9030000FC
